{
  "address": "0x9A676e781A523b5d0C0e43731313A708CB607508",
  "abi": [
    {
      "inputs": [
        {
          "internalType": "address",
          "name": "_owner",
          "type": "address"
        }
      ],
      "stateMutability": "nonpayable",
      "type": "constructor"
    },
    {
      "anonymous": false,
      "inputs": [
        {
          "indexed": true,
          "internalType": "uint256",
          "name": "marketItemId",
          "type": "uint256"
        },
        {
          "indexed": true,
          "internalType": "address",
          "name": "nftContract",
          "type": "address"
        },
        {
          "indexed": true,
          "internalType": "uint256",
          "name": "tokenId",
          "type": "uint256"
        },
        {
          "indexed": false,
          "internalType": "address",
          "name": "creator",
          "type": "address"
        },
        {
          "indexed": false,
          "internalType": "address",
          "name": "seller",
          "type": "address"
        },
        {
          "indexed": false,
          "internalType": "address",
          "name": "owner",
          "type": "address"
        },
        {
          "indexed": false,
          "internalType": "uint256",
          "name": "price",
          "type": "uint256"
        },
        {
          "indexed": false,
          "internalType": "bool",
          "name": "sold",
          "type": "bool"
        },
        {
          "indexed": false,
          "internalType": "bool",
          "name": "canceled",
          "type": "bool"
        }
      ],
      "name": "MarketItemCreated",
      "type": "event"
    },
    {
      "inputs": [
        {
          "internalType": "address",
          "name": "nftContractAddress",
          "type": "address"
        },
        {
          "internalType": "uint256",
          "name": "marketItemId",
          "type": "uint256"
        }
      ],
      "name": "cancelMarketItem",
      "outputs": [],
      "stateMutability": "payable",
      "type": "function"
    },
    {
      "inputs": [
        {
          "internalType": "address",
          "name": "nftContractAddress",
          "type": "address"
        },
        {
          "internalType": "uint256",
          "name": "tokenId",
          "type": "uint256"
        },
        {
          "internalType": "uint256",
          "name": "price",
          "type": "uint256"
        }
      ],
      "name": "createMarketItem",
      "outputs": [
        {
          "internalType": "uint256",
          "name": "",
          "type": "uint256"
        }
      ],
      "stateMutability": "payable",
      "type": "function"
    },
    {
      "inputs": [
        {
          "internalType": "address",
          "name": "nftContractAddress",
          "type": "address"
        },
        {
          "internalType": "uint256",
          "name": "marketItemId",
          "type": "uint256"
        }
      ],
      "name": "createMarketSale",
      "outputs": [],
      "stateMutability": "payable",
      "type": "function"
    },
    {
      "inputs": [],
      "name": "fetchAvailableMarketItems",
      "outputs": [
        {
          "components": [
            {
              "internalType": "uint256",
              "name": "marketItemId",
              "type": "uint256"
            },
            {
              "internalType": "address",
              "name": "nftContractAddress",
              "type": "address"
            },
            {
              "internalType": "uint256",
              "name": "tokenId",
              "type": "uint256"
            },
            {
              "internalType": "address payable",
              "name": "creator",
              "type": "address"
            },
            {
              "internalType": "address payable",
              "name": "seller",
              "type": "address"
            },
            {
              "internalType": "address payable",
              "name": "owner",
              "type": "address"
            },
            {
              "internalType": "uint256",
              "name": "price",
              "type": "uint256"
            },
            {
              "internalType": "bool",
              "name": "sold",
              "type": "bool"
            },
            {
              "internalType": "bool",
              "name": "canceled",
              "type": "bool"
            },
            {
              "internalType": "bool",
              "name": "listed",
              "type": "bool"
            }
          ],
          "internalType": "struct NFTManager.MarketItem[]",
          "name": "",
          "type": "tuple[]"
        }
      ],
      "stateMutability": "view",
      "type": "function"
    },
    {
      "inputs": [
        {
          "internalType": "string",
          "name": "_addressProperty",
          "type": "string"
        }
      ],
      "name": "fetchMarketItemsByAddressProperty",
      "outputs": [
        {
          "components": [
            {
              "internalType": "uint256",
              "name": "marketItemId",
              "type": "uint256"
            },
            {
              "internalType": "address",
              "name": "nftContractAddress",
              "type": "address"
            },
            {
              "internalType": "uint256",
              "name": "tokenId",
              "type": "uint256"
            },
            {
              "internalType": "address payable",
              "name": "creator",
              "type": "address"
            },
            {
              "internalType": "address payable",
              "name": "seller",
              "type": "address"
            },
            {
              "internalType": "address payable",
              "name": "owner",
              "type": "address"
            },
            {
              "internalType": "uint256",
              "name": "price",
              "type": "uint256"
            },
            {
              "internalType": "bool",
              "name": "sold",
              "type": "bool"
            },
            {
              "internalType": "bool",
              "name": "canceled",
              "type": "bool"
            },
            {
              "internalType": "bool",
              "name": "listed",
              "type": "bool"
            }
          ],
          "internalType": "struct NFTManager.MarketItem[]",
          "name": "",
          "type": "tuple[]"
        }
      ],
      "stateMutability": "view",
      "type": "function"
    },
    {
      "inputs": [],
      "name": "fetchOwnedMarketItems",
      "outputs": [
        {
          "components": [
            {
              "internalType": "uint256",
              "name": "marketItemId",
              "type": "uint256"
            },
            {
              "internalType": "address",
              "name": "nftContractAddress",
              "type": "address"
            },
            {
              "internalType": "uint256",
              "name": "tokenId",
              "type": "uint256"
            },
            {
              "internalType": "address payable",
              "name": "creator",
              "type": "address"
            },
            {
              "internalType": "address payable",
              "name": "seller",
              "type": "address"
            },
            {
              "internalType": "address payable",
              "name": "owner",
              "type": "address"
            },
            {
              "internalType": "uint256",
              "name": "price",
              "type": "uint256"
            },
            {
              "internalType": "bool",
              "name": "sold",
              "type": "bool"
            },
            {
              "internalType": "bool",
              "name": "canceled",
              "type": "bool"
            },
            {
              "internalType": "bool",
              "name": "listed",
              "type": "bool"
            }
          ],
          "internalType": "struct NFTManager.MarketItem[]",
          "name": "",
          "type": "tuple[]"
        }
      ],
      "stateMutability": "view",
      "type": "function"
    },
    {
      "inputs": [],
      "name": "fetchSellingMarketItems",
      "outputs": [
        {
          "components": [
            {
              "internalType": "uint256",
              "name": "marketItemId",
              "type": "uint256"
            },
            {
              "internalType": "address",
              "name": "nftContractAddress",
              "type": "address"
            },
            {
              "internalType": "uint256",
              "name": "tokenId",
              "type": "uint256"
            },
            {
              "internalType": "address payable",
              "name": "creator",
              "type": "address"
            },
            {
              "internalType": "address payable",
              "name": "seller",
              "type": "address"
            },
            {
              "internalType": "address payable",
              "name": "owner",
              "type": "address"
            },
            {
              "internalType": "uint256",
              "name": "price",
              "type": "uint256"
            },
            {
              "internalType": "bool",
              "name": "sold",
              "type": "bool"
            },
            {
              "internalType": "bool",
              "name": "canceled",
              "type": "bool"
            },
            {
              "internalType": "bool",
              "name": "listed",
              "type": "bool"
            }
          ],
          "internalType": "struct NFTManager.MarketItem[]",
          "name": "",
          "type": "tuple[]"
        }
      ],
      "stateMutability": "view",
      "type": "function"
    },
    {
      "inputs": [
        {
          "internalType": "uint256",
          "name": "tokenId",
          "type": "uint256"
        }
      ],
      "name": "getLatestMarketItemByTokenId",
      "outputs": [
        {
          "components": [
            {
              "internalType": "uint256",
              "name": "marketItemId",
              "type": "uint256"
            },
            {
              "internalType": "address",
              "name": "nftContractAddress",
              "type": "address"
            },
            {
              "internalType": "uint256",
              "name": "tokenId",
              "type": "uint256"
            },
            {
              "internalType": "address payable",
              "name": "creator",
              "type": "address"
            },
            {
              "internalType": "address payable",
              "name": "seller",
              "type": "address"
            },
            {
              "internalType": "address payable",
              "name": "owner",
              "type": "address"
            },
            {
              "internalType": "uint256",
              "name": "price",
              "type": "uint256"
            },
            {
              "internalType": "bool",
              "name": "sold",
              "type": "bool"
            },
            {
              "internalType": "bool",
              "name": "canceled",
              "type": "bool"
            },
            {
              "internalType": "bool",
              "name": "listed",
              "type": "bool"
            }
          ],
          "internalType": "struct NFTManager.MarketItem",
          "name": "",
          "type": "tuple"
        },
        {
          "internalType": "bool",
          "name": "",
          "type": "bool"
        }
      ],
      "stateMutability": "view",
      "type": "function"
    },
    {
      "inputs": [],
      "name": "getListingFee",
      "outputs": [
        {
          "internalType": "uint256",
          "name": "",
          "type": "uint256"
        }
      ],
      "stateMutability": "view",
      "type": "function"
    }
  ],
  "transactionHash": "0x731d9462c423c770f9e9d30da0dcfc0e8ead4a65d9c942ff7d1e7a5dc91064ea",
  "args": [
    "0x0fAb64624733a7020D332203568754EB1a37DB89"
  ],
  "solcInputHash": "011cb4e2778970ad96fee9f0fc20d4a0",
  "bytecode": "0x608060405266b1a2bc2ec5000060055534801561001b57600080fd5b5060405161169338038061169383398101604081905261003a91610064565b6001600055600480546001600160a01b0319166001600160a01b0392909216919091179055610092565b600060208284031215610075578081fd5b81516001600160a01b038116811461008b578182fd5b9392505050565b6115f2806100a16000396000f3fe6080604052600436106100865760003560e01c80636f9b4920116100595780636f9b492014610101578063b3e3c42f1461012f578063b8fe6abe14610144578063c23b139e14610159578063cd90fdf41461016c57600080fd5b80630203c8231461008b5780630e01c969146100b65780634cf2a069146100cb57806358eb2df5146100e0575b600080fd5b34801561009757600080fd5b506100a061018c565b6040516100ad9190611439565b60405180910390f35b3480156100c257600080fd5b506100a06101b9565b3480156100d757600080fd5b506100a0610386565b6100f36100ee366004611257565b6103af565b6040519081526020016100ad565b34801561010d57600080fd5b5061012161011c366004611335565b610815565b6040516100ad9291906114f8565b61014261013d3660046111ff565b610911565b005b34801561015057600080fd5b506005546100f3565b6101426101673660046111ff565b610a52565b34801561017857600080fd5b506100a061018736600461128b565b610cc6565b60606101b46040518060400160405280600581526020016437bbb732b960d91b815250610cc6565b905090565b606060006101c660015490565b905060006101d360025490565b905060006101e060035490565b90506000816101ef848661152f565b6101f9919061152f565b905060008167ffffffffffffffff81111561022457634e487b7160e01b600052604160045260246000fd5b60405190808252806020026020018201604052801561025d57816020015b61024a61118f565b8152602001906001900390816102425790505b5090506000805b8681101561037a57600060068161027c846001611517565b815260208082019290925260409081016000208151610140810183528154815260018201546001600160a01b0390811694820194909452600282015492810192909252600381015483166060830152600481015483166080830152600581015490921660a08201819052600683015460c083015260079092015460ff808216151560e084015261010080830482161515908401526201000090910416151561012082015291501561032d5750610368565b8084848151811061034e57634e487b7160e01b600052603260045260246000fd5b6020908102919091010152610364600184611517565b9250505b806103728161155d565b915050610264565b50909695505050505050565b60606101b46040518060400160405280600681526020016539b2b63632b960d11b815250610cc6565b6000600260005414156103dd5760405162461bcd60e51b81526004016103d4906114c1565b60405180910390fd5b60026000558161042f5760405162461bcd60e51b815260206004820152601c60248201527f5072696365206d757374206265206174206c656173742031207765690000000060448201526064016103d4565b600554341461048c5760405162461bcd60e51b8152602060048201526024808201527f56616c7565206d75737420626520657175616c20746f206c697374696e6720706044820152637269636560e01b60648201526084016103d4565b61049a600180546001019055565b60006104a560015490565b604051631e63215760e31b8152600481018690529091506000906001600160a01b0387169063f3190ab89060240160206040518083038186803b1580156104eb57600080fd5b505afa1580156104ff573d6000803e3d6000fd5b505050506040513d601f19601f8201168201806040525081019061052391906111e3565b9050604051806101400160405280838152602001876001600160a01b03168152602001868152602001826001600160a01b03168152602001336001600160a01b0316815260200160006001600160a01b0316815260200185815260200160001515815260200160001515815260200160011515815250600660008481526020019081526020016000206000820151816000015560208201518160010160006101000a8154816001600160a01b0302191690836001600160a01b031602179055506040820151816002015560608201518160030160006101000a8154816001600160a01b0302191690836001600160a01b0316021790555060808201518160040160006101000a8154816001600160a01b0302191690836001600160a01b0316021790555060a08201518160050160006101000a8154816001600160a01b0302191690836001600160a01b0316021790555060c0820151816006015560e08201518160070160006101000a81548160ff0219169083151502179055506101008201518160070160016101000a81548160ff0219169083151502179055506101208201518160070160026101000a81548160ff021916908315150217905550905050856001600160a01b03166323b872dd3330886040518463ffffffff1660e01b8152600401610732939291906001600160a01b039384168152919092166020820152604081019190915260600190565b600060405180830381600087803b15801561074c57600080fd5b505af1158015610760573d6000803e3d6000fd5b5050604080516001600160a01b0385811682523360208301526000828401819052606083018a90526080830181905260a08301529151899450918a16925085917fa3b15201f5409f14cce6233dc60972278c313ff3ddbdee57ff092c0e953135269181900360c00190a46004546005546040516001600160a01b039092169181156108fc0291906000818181858888f19350505050158015610806573d6000803e3d6000fd5b50506001600055949350505050565b61081d61118f565b60008061082960015490565b9050805b80156108fd576000818152600660208181526040928390208351610140810185528154815260018201546001600160a01b03908116938201939093526002820154948101859052600382015483166060820152600482015483166080820152600582015490921660a08301529182015460c082015260079091015460ff808216151560e08401526101008083048216151590840152620100009091041615156101208201529086146108df57506108eb565b95600195509350505050565b806108f581611546565b91505061082d565b5061090661118f565b946000945092505050565b600260005414156109345760405162461bcd60e51b81526004016103d4906114c1565b60026000818155828152600660205260409020908101546004909101546001600160a01b031633146109a15760405162461bcd60e51b81526020600482015260166024820152752cb7ba9030b932903737ba103a34329039b2b63632b960511b60448201526064016103d4565b6040516323b872dd60e01b8152306004820152336024820152604481018290526001600160a01b038416906323b872dd90606401600060405180830381600087803b1580156109ef57600080fd5b505af1158015610a03573d6000803e3d6000fd5b50505060008381526006602052604090206005810180546001600160a01b03191633179055600701805462ffff00191661010017905550610a48600380546001019055565b5050600160005550565b60026000541415610a755760405162461bcd60e51b81526004016103d4906114c1565b60026000818155828152600660208190526040808320918201549190930154925163152a902d60e11b815260048101849052602481018290529092919081906001600160a01b03871690632a55205a90604401604080518083038186803b158015610adf57600080fd5b505afa158015610af3573d6000803e3d6000fd5b505050506040513d601f19601f82011682018060405250810190610b17919061122a565b9092509050610b268185611517565b3414610b905760405162461bcd60e51b815260206004820152603360248201527f506c65617365207375626d6974207468652061736b696e6720707269636520696044820152726e206f7264657220746f20636f6e74696e756560681b60648201526084016103d4565b6000858152600660205260408082206005810180546001600160a01b0319163317905560078101805462ff00ff191660011790556004015490516001600160a01b03919091169186156108fc02918791818181858888f19350505050158015610bfd573d6000803e3d6000fd5b506040516323b872dd60e01b8152306004820152336024820152604481018490526001600160a01b038716906323b872dd90606401600060405180830381600087803b158015610c4c57600080fd5b505af1158015610c60573d6000803e3d6000fd5b50505050610c72600280546001019055565b6001600160a01b03821615610cb9576040516001600160a01b0383169082156108fc029083906000818181858888f19350505050158015610cb7573d6000803e3d6000fd5b505b5050600160005550505050565b6060610cf0826040518060400160405280600681526020016539b2b63632b960d11b815250611080565b80610d1d5750610d1d826040518060400160405280600581526020016437bbb732b960d91b815250611080565b610d395760405162461bcd60e51b81526004016103d49061147c565b6000610d4460015490565b905060008060005b83811015610e4f576000600681610d64846001611517565b8152602080820192909252604090810160009081208251610140810184528154815260018201546001600160a01b0390811695820195909552600282015493810193909352600381015484166060840152600481015484166080840152600581015490931660a0830152600683015460c0830152600783015460ff808216151560e0850152610100808304821615159085015262010000909104161515610120830152919250610e1490896110d9565b90506001600160a01b0381163314610e2d575050610e3d565b610e38600186611517565b945050505b80610e478161155d565b915050610d4c565b5060008267ffffffffffffffff811115610e7957634e487b7160e01b600052604160045260246000fd5b604051908082528060200260200182016040528015610eb257816020015b610e9f61118f565b815260200190600190039081610e975790505b50905060005b84811015611076576000600681610ed0846001611517565b8152602080820192909252604090810160009081208251610140810184528154815260018201546001600160a01b0390811695820195909552600282015493810193909352600381015484166060840152600481015484166080840152600581015490931660a0830152600683015460c0830152600783015460ff808216151560e0850152610100808304821615159085015262010000909104161515610120830152919250610f80908a6110d9565b90506001600160a01b0381163314610f99575050611064565b60408051610140810182528354815260018401546001600160a01b039081166020830152600285015492820192909252600384015482166060820152600484015482166080820152600584015490911660a0820152600683015460c0820152600783015460ff808216151560e0840152610100808304821615159084015262010000909104161515610120820152845185908790811061104957634e487b7160e01b600052603260045260246000fd5b602090810291909101015261105f600186611517565b945050505b8061106e8161155d565b915050610eb8565b5095945050505050565b6000816040516020016110939190611400565b60405160208183030381529060405280519060200120836040516020016110ba9190611400565b6040516020818303038152906040528051906020012014905092915050565b6000611103826040518060400160405280600681526020016539b2b63632b960d11b815250611080565b806111305750611130826040518060400160405280600581526020016437bbb732b960d91b815250611080565b61114c5760405162461bcd60e51b81526004016103d49061147c565b611174826040518060400160405280600681526020016539b2b63632b960d11b815250611080565b611182578260a00151611188565b82608001515b9392505050565b6040805161014081018252600080825260208201819052918101829052606081018290526080810182905260a0810182905260c0810182905260e08101829052610100810182905261012081019190915290565b6000602082840312156111f4578081fd5b8151611188816115a4565b60008060408385031215611211578081fd5b823561121c816115a4565b946020939093013593505050565b6000806040838503121561123c578182fd5b8251611247816115a4565b6020939093015192949293505050565b60008060006060848603121561126b578081fd5b8335611276816115a4565b95602085013595506040909401359392505050565b60006020828403121561129c578081fd5b813567ffffffffffffffff808211156112b3578283fd5b818401915084601f8301126112c6578283fd5b8135818111156112d8576112d861158e565b604051601f8201601f19908116603f011681019083821181831017156113005761130061158e565b81604052828152876020848701011115611318578586fd5b826020860160208301379182016020019490945295945050505050565b600060208284031215611346578081fd5b5035919050565b80518252602081015161136b60208401826001600160a01b03169052565b5060408101516040830152606081015161139060608401826001600160a01b03169052565b5060808101516113ab60808401826001600160a01b03169052565b5060a08101516113c660a08401826001600160a01b03169052565b5060c081015160c083015260e08101516113e460e084018215159052565b5061010081810151151590830152610120908101511515910152565b60008251815b818110156114205760208186018101518583015201611406565b8181111561142e5782828501525b509190910192915050565b6020808252825182820181905260009190848201906040850190845b8181101561037a5761146883855161134d565b928401926101409290920191600101611455565b60208082526025908201527f506172616d65746572206d757374206265202773656c6c657227206f7220276f604082015264776e65722760d81b606082015260800190565b6020808252601f908201527f5265656e7472616e637947756172643a207265656e7472616e742063616c6c00604082015260600190565b6101608101611507828561134d565b8215156101408301529392505050565b6000821982111561152a5761152a611578565b500190565b60008282101561154157611541611578565b500390565b60008161155557611555611578565b506000190190565b600060001982141561157157611571611578565b5060010190565b634e487b7160e01b600052601160045260246000fd5b634e487b7160e01b600052604160045260246000fd5b6001600160a01b03811681146115b957600080fd5b5056fea26469706673582212207ff131a184007eca764ab4c9377c7fb6653d1967212c48297b782626bbb2059f64736f6c63430008040033",
  "devdoc": {
    "kind": "dev",
    "methods": {},
    "version": 1
  },
  "userdoc": {
    "kind": "user",
    "methods": {
      "cancelMarketItem(address,uint256)": {
        "notice": "Cancel a market item"
      },
      "createMarketItem(address,uint256,uint256)": {
        "notice": "add an nft to market listing"
      },
      "createMarketSale(address,uint256)": {
        "notice": "create a sale transfer nft to buyer, eth to seller and royalty to creator"
      },
      "fetchAvailableMarketItems()": {
        "notice": "Fetch non sold and non canceled market items"
      },
      "fetchOwnedMarketItems()": {
        "notice": "Fetch market items that are owned by the msg.sender"
      },
      "fetchSellingMarketItems()": {
        "notice": "Fetch market items that are being listed by the msg.sender"
      },
      "getLatestMarketItemByTokenId(uint256)": {
        "notice": "Get Latest Market Item by the token id"
      }
    },
    "version": 1
  },
  "storageLayout": {
    "storage": [
      {
        "astId": 142,
        "contract": "contracts/NFTManager.sol:NFTManager",
        "label": "_status",
        "offset": 0,
        "slot": "0",
        "type": "t_uint256"
      },
      {
        "astId": 2111,
        "contract": "contracts/NFTManager.sol:NFTManager",
        "label": "_marketItemIds",
        "offset": 0,
        "slot": "1",
        "type": "t_struct(Counter)1766_storage"
      },
      {
        "astId": 2114,
        "contract": "contracts/NFTManager.sol:NFTManager",
        "label": "_tokensSold",
        "offset": 0,
        "slot": "2",
        "type": "t_struct(Counter)1766_storage"
      },
      {
        "astId": 2117,
        "contract": "contracts/NFTManager.sol:NFTManager",
        "label": "_tokensCanceled",
        "offset": 0,
        "slot": "3",
        "type": "t_struct(Counter)1766_storage"
      },
      {
        "astId": 2119,
        "contract": "contracts/NFTManager.sol:NFTManager",
        "label": "owner",
        "offset": 0,
        "slot": "4",
        "type": "t_address_payable"
      },
      {
        "astId": 2122,
        "contract": "contracts/NFTManager.sol:NFTManager",
        "label": "listingFee",
        "offset": 0,
        "slot": "5",
        "type": "t_uint256"
      },
      {
        "astId": 2127,
        "contract": "contracts/NFTManager.sol:NFTManager",
        "label": "marketItemIdToMarketItem",
        "offset": 0,
        "slot": "6",
        "type": "t_mapping(t_uint256,t_struct(MarketItem)2148_storage)"
      }
    ],
    "types": {
      "t_address": {
        "encoding": "inplace",
        "label": "address",
        "numberOfBytes": "20"
      },
      "t_address_payable": {
        "encoding": "inplace",
        "label": "address payable",
        "numberOfBytes": "20"
      },
      "t_bool": {
        "encoding": "inplace",
        "label": "bool",
        "numberOfBytes": "1"
      },
      "t_mapping(t_uint256,t_struct(MarketItem)2148_storage)": {
        "encoding": "mapping",
        "key": "t_uint256",
        "label": "mapping(uint256 => struct NFTManager.MarketItem)",
        "numberOfBytes": "32",
        "value": "t_struct(MarketItem)2148_storage"
      },
      "t_struct(Counter)1766_storage": {
        "encoding": "inplace",
        "label": "struct Counters.Counter",
        "members": [
          {
            "astId": 1765,
            "contract": "contracts/NFTManager.sol:NFTManager",
            "label": "_value",
            "offset": 0,
            "slot": "0",
            "type": "t_uint256"
          }
        ],
        "numberOfBytes": "32"
      },
      "t_struct(MarketItem)2148_storage": {
        "encoding": "inplace",
        "label": "struct NFTManager.MarketItem",
        "members": [
          {
            "astId": 2129,
            "contract": "contracts/NFTManager.sol:NFTManager",
            "label": "marketItemId",
            "offset": 0,
            "slot": "0",
            "type": "t_uint256"
          },
          {
            "astId": 2131,
            "contract": "contracts/NFTManager.sol:NFTManager",
            "label": "nftContractAddress",
            "offset": 0,
            "slot": "1",
            "type": "t_address"
          },
          {
            "astId": 2133,
            "contract": "contracts/NFTManager.sol:NFTManager",
            "label": "tokenId",
            "offset": 0,
            "slot": "2",
            "type": "t_uint256"
          },
          {
            "astId": 2135,
            "contract": "contracts/NFTManager.sol:NFTManager",
            "label": "creator",
            "offset": 0,
            "slot": "3",
            "type": "t_address_payable"
          },
          {
            "astId": 2137,
            "contract": "contracts/NFTManager.sol:NFTManager",
            "label": "seller",
            "offset": 0,
            "slot": "4",
            "type": "t_address_payable"
          },
          {
            "astId": 2139,
            "contract": "contracts/NFTManager.sol:NFTManager",
            "label": "owner",
            "offset": 0,
            "slot": "5",
            "type": "t_address_payable"
          },
          {
            "astId": 2141,
            "contract": "contracts/NFTManager.sol:NFTManager",
            "label": "price",
            "offset": 0,
            "slot": "6",
            "type": "t_uint256"
          },
          {
            "astId": 2143,
            "contract": "contracts/NFTManager.sol:NFTManager",
            "label": "sold",
            "offset": 0,
            "slot": "7",
            "type": "t_bool"
          },
          {
            "astId": 2145,
            "contract": "contracts/NFTManager.sol:NFTManager",
            "label": "canceled",
            "offset": 1,
            "slot": "7",
            "type": "t_bool"
          },
          {
            "astId": 2147,
            "contract": "contracts/NFTManager.sol:NFTManager",
            "label": "listed",
            "offset": 2,
            "slot": "7",
            "type": "t_bool"
          }
        ],
        "numberOfBytes": "256"
      },
      "t_uint256": {
        "encoding": "inplace",
        "label": "uint256",
        "numberOfBytes": "32"
      }
    }
  }
}