{
  "_format": "hh-sol-artifact-1",
  "contractName": "YourNFT",
  "sourceName": "contracts/YourNFT.sol",
  "abi": [
    {
      "inputs": [
        {
          "internalType": "address",
          "name": "_marketplaceAddress",
          "type": "address"
        }
      ],
      "stateMutability": "nonpayable",
      "type": "constructor"
    },
    {
      "anonymous": false,
      "inputs": [
        {
          "indexed": true,
          "internalType": "address",
          "name": "owner",
          "type": "address"
        },
        {
          "indexed": true,
          "internalType": "address",
          "name": "approved",
          "type": "address"
        },
        {
          "indexed": true,
          "internalType": "uint256",
          "name": "tokenId",
          "type": "uint256"
        }
      ],
      "name": "Approval",
      "type": "event"
    },
    {
      "anonymous": false,
      "inputs": [
        {
          "indexed": true,
          "internalType": "address",
          "name": "owner",
          "type": "address"
        },
        {
          "indexed": true,
          "internalType": "address",
          "name": "operator",
          "type": "address"
        },
        {
          "indexed": false,
          "internalType": "bool",
          "name": "approved",
          "type": "bool"
        }
      ],
      "name": "ApprovalForAll",
      "type": "event"
    },
    {
      "anonymous": false,
      "inputs": [
        {
          "indexed": true,
          "internalType": "address",
          "name": "previousOwner",
          "type": "address"
        },
        {
          "indexed": true,
          "internalType": "address",
          "name": "newOwner",
          "type": "address"
        }
      ],
      "name": "OwnershipTransferred",
      "type": "event"
    },
    {
      "anonymous": false,
      "inputs": [
        {
          "indexed": true,
          "internalType": "uint256",
          "name": "tokenId",
          "type": "uint256"
        },
        {
          "indexed": false,
          "internalType": "string",
          "name": "tokenURI",
          "type": "string"
        },
        {
          "indexed": false,
          "internalType": "address",
          "name": "marketplaceAddress",
          "type": "address"
        }
      ],
      "name": "TokenMinted",
      "type": "event"
    },
    {
      "anonymous": false,
      "inputs": [
        {
          "indexed": true,
          "internalType": "address",
          "name": "from",
          "type": "address"
        },
        {
          "indexed": true,
          "internalType": "address",
          "name": "to",
          "type": "address"
        },
        {
          "indexed": true,
          "internalType": "uint256",
          "name": "tokenId",
          "type": "uint256"
        }
      ],
      "name": "Transfer",
      "type": "event"
    },
    {
      "inputs": [
        {
          "internalType": "address",
          "name": "to",
          "type": "address"
        },
        {
          "internalType": "uint256",
          "name": "tokenId",
          "type": "uint256"
        }
      ],
      "name": "approve",
      "outputs": [],
      "stateMutability": "nonpayable",
      "type": "function"
    },
    {
      "inputs": [
        {
          "internalType": "address",
          "name": "owner",
          "type": "address"
        }
      ],
      "name": "balanceOf",
      "outputs": [
        {
          "internalType": "uint256",
          "name": "",
          "type": "uint256"
        }
      ],
      "stateMutability": "view",
      "type": "function"
    },
    {
      "inputs": [
        {
          "internalType": "uint256",
          "name": "tokenId",
          "type": "uint256"
        }
      ],
      "name": "getApproved",
      "outputs": [
        {
          "internalType": "address",
          "name": "",
          "type": "address"
        }
      ],
      "stateMutability": "view",
      "type": "function"
    },
    {
      "inputs": [],
      "name": "getUserCreatedToken",
      "outputs": [
        {
          "internalType": "uint256[]",
          "name": "",
          "type": "uint256[]"
        }
      ],
      "stateMutability": "view",
      "type": "function"
    },
    {
      "inputs": [],
      "name": "getUserOwnedTokens",
      "outputs": [
        {
          "internalType": "uint256[]",
          "name": "",
          "type": "uint256[]"
        }
      ],
      "stateMutability": "view",
      "type": "function"
    },
    {
      "inputs": [
        {
          "internalType": "uint256",
          "name": "tokenId",
          "type": "uint256"
        }
      ],
      "name": "getUserTokenById",
      "outputs": [
        {
          "internalType": "address",
          "name": "",
          "type": "address"
        }
      ],
      "stateMutability": "view",
      "type": "function"
    },
    {
      "inputs": [
        {
          "internalType": "address",
          "name": "owner",
          "type": "address"
        },
        {
          "internalType": "address",
          "name": "operator",
          "type": "address"
        }
      ],
      "name": "isApprovedForAll",
      "outputs": [
        {
          "internalType": "bool",
          "name": "",
          "type": "bool"
        }
      ],
      "stateMutability": "view",
      "type": "function"
    },
    {
      "inputs": [
        {
          "internalType": "string",
          "name": "token_uri",
          "type": "string"
        },
        {
          "internalType": "uint96",
          "name": "feeNumerator",
          "type": "uint96"
        }
      ],
      "name": "mint",
      "outputs": [
        {
          "internalType": "uint256",
          "name": "",
          "type": "uint256"
        }
      ],
      "stateMutability": "nonpayable",
      "type": "function"
    },
    {
      "inputs": [],
      "name": "name",
      "outputs": [
        {
          "internalType": "string",
          "name": "",
          "type": "string"
        }
      ],
      "stateMutability": "view",
      "type": "function"
    },
    {
      "inputs": [],
      "name": "owner",
      "outputs": [
        {
          "internalType": "address",
          "name": "",
          "type": "address"
        }
      ],
      "stateMutability": "view",
      "type": "function"
    },
    {
      "inputs": [
        {
          "internalType": "uint256",
          "name": "tokenId",
          "type": "uint256"
        }
      ],
      "name": "ownerOf",
      "outputs": [
        {
          "internalType": "address",
          "name": "",
          "type": "address"
        }
      ],
      "stateMutability": "view",
      "type": "function"
    },
    {
      "inputs": [],
      "name": "renounceOwnership",
      "outputs": [],
      "stateMutability": "nonpayable",
      "type": "function"
    },
    {
      "inputs": [
        {
          "internalType": "uint256",
          "name": "_tokenId",
          "type": "uint256"
        },
        {
          "internalType": "uint256",
          "name": "_salePrice",
          "type": "uint256"
        }
      ],
      "name": "royaltyInfo",
      "outputs": [
        {
          "internalType": "address",
          "name": "",
          "type": "address"
        },
        {
          "internalType": "uint256",
          "name": "",
          "type": "uint256"
        }
      ],
      "stateMutability": "view",
      "type": "function"
    },
    {
      "inputs": [
        {
          "internalType": "address",
          "name": "from",
          "type": "address"
        },
        {
          "internalType": "address",
          "name": "to",
          "type": "address"
        },
        {
          "internalType": "uint256",
          "name": "tokenId",
          "type": "uint256"
        }
      ],
      "name": "safeTransferFrom",
      "outputs": [],
      "stateMutability": "nonpayable",
      "type": "function"
    },
    {
      "inputs": [
        {
          "internalType": "address",
          "name": "from",
          "type": "address"
        },
        {
          "internalType": "address",
          "name": "to",
          "type": "address"
        },
        {
          "internalType": "uint256",
          "name": "tokenId",
          "type": "uint256"
        },
        {
          "internalType": "bytes",
          "name": "data",
          "type": "bytes"
        }
      ],
      "name": "safeTransferFrom",
      "outputs": [],
      "stateMutability": "nonpayable",
      "type": "function"
    },
    {
      "inputs": [
        {
          "internalType": "address",
          "name": "operator",
          "type": "address"
        },
        {
          "internalType": "bool",
          "name": "approved",
          "type": "bool"
        }
      ],
      "name": "setApprovalForAll",
      "outputs": [],
      "stateMutability": "nonpayable",
      "type": "function"
    },
    {
      "inputs": [
        {
          "internalType": "string",
          "name": "baseURI_",
          "type": "string"
        }
      ],
      "name": "setBaseURI",
      "outputs": [],
      "stateMutability": "nonpayable",
      "type": "function"
    },
    {
      "inputs": [
        {
          "internalType": "uint256",
          "name": "_tokenId",
          "type": "uint256"
        },
        {
          "internalType": "address",
          "name": "_receiver",
          "type": "address"
        },
        {
          "internalType": "uint96",
          "name": "_feeNumerator",
          "type": "uint96"
        }
      ],
      "name": "setTokenRoyalty",
      "outputs": [],
      "stateMutability": "nonpayable",
      "type": "function"
    },
    {
      "inputs": [
        {
          "internalType": "bytes4",
          "name": "interfaceId",
          "type": "bytes4"
        }
      ],
      "name": "supportsInterface",
      "outputs": [
        {
          "internalType": "bool",
          "name": "",
          "type": "bool"
        }
      ],
      "stateMutability": "view",
      "type": "function"
    },
    {
      "inputs": [],
      "name": "symbol",
      "outputs": [
        {
          "internalType": "string",
          "name": "",
          "type": "string"
        }
      ],
      "stateMutability": "view",
      "type": "function"
    },
    {
      "inputs": [
        {
          "internalType": "uint256",
          "name": "tokenId",
          "type": "uint256"
        }
      ],
      "name": "tokenURI",
      "outputs": [
        {
          "internalType": "string",
          "name": "",
          "type": "string"
        }
      ],
      "stateMutability": "view",
      "type": "function"
    },
    {
      "inputs": [
        {
          "internalType": "address",
          "name": "from",
          "type": "address"
        },
        {
          "internalType": "address",
          "name": "to",
          "type": "address"
        },
        {
          "internalType": "uint256",
          "name": "tokenId",
          "type": "uint256"
        }
      ],
      "name": "transferFrom",
      "outputs": [],
      "stateMutability": "nonpayable",
      "type": "function"
    },
    {
      "inputs": [
        {
          "internalType": "address",
          "name": "newOwner",
          "type": "address"
        }
      ],
      "name": "transferOwnership",
      "outputs": [],
      "stateMutability": "nonpayable",
      "type": "function"
    }
  ],
  "bytecode": "0x60806040523480156200001157600080fd5b5060405162002085380380620020858339810160408190526200003491620001e0565b6040518060400160405280600b81526020016a27232a2fa6b0b730b3b2b960a91b815250604051806040016040528060028152602001614e4d60f01b81525081600290805190602001906200008b9291906200013a565b508051620000a19060039060208401906200013a565b505050620000be620000b8620000e460201b60201c565b620000e8565b600a80546001600160a01b0319166001600160a01b03929092169190911790556200024d565b3390565b600880546001600160a01b038381166001600160a01b0319831681179093556040519116919082907f8be0079c531659141344cd1fd0a4f28419497f9722a3daafe3b4186f6b6457e090600090a35050565b828054620001489062000210565b90600052602060002090601f0160209004810192826200016c5760008555620001b7565b82601f106200018757805160ff1916838001178555620001b7565b82800160010185558215620001b7579182015b82811115620001b75782518255916020019190600101906200019a565b50620001c5929150620001c9565b5090565b5b80821115620001c55760008155600101620001ca565b600060208284031215620001f2578081fd5b81516001600160a01b038116811462000209578182fd5b9392505050565b600181811c908216806200022557607f821691505b602082108114156200024757634e487b7160e01b600052602260045260246000fd5b50919050565b611e28806200025d6000396000f3fe608060405234801561001057600080fd5b506004361061014d5760003560e01c80636352211e116100c3578063b88d4fde1161007c578063b88d4fde146102d2578063c87b56dd146102e5578063cbbb20a4146102f8578063e985e9c51461030b578063f2fde38b14610347578063f3190ab81461035a57600080fd5b80636352211e1461026a57806370a082311461027d578063715018a61461029e5780638da5cb5b146102a657806395d89b41146102b7578063a22cb465146102bf57600080fd5b806323b872dd1161011557806323b872dd146101e45780632a55205a146101f757806342842e0e1461022957806355f804b31461023c5780635845f43c1461024f5780635944c7531461025757600080fd5b806301ffc9a71461015257806306fdde031461017a578063081812fc1461018f578063095ea7b3146101ba5780630ded59f9146101cf575b600080fd5b6101656101603660046119c7565b610383565b60405190151581526020015b60405180910390f35b610182610394565b6040516101719190611bc5565b6101a261019d366004611a75565b610426565b6040516001600160a01b039091168152602001610171565b6101cd6101c836600461199e565b61044d565b005b6101d7610568565b6040516101719190611b81565b6101cd6101f23660046118b0565b61065b565b61020a610205366004611ac8565b61068c565b604080516001600160a01b039093168352602083019190915201610171565b6101cd6102373660046118b0565b610738565b6101cd61024a3660046119ff565b610753565b6101d7610772565b6101cd610265366004611a8d565b6108b7565b6101a2610278366004611a75565b6108c2565b61029061028b366004611864565b610922565b604051908152602001610171565b6101cd6109a8565b6008546001600160a01b03166101a2565b6101826109bc565b6101cd6102cd366004611964565b6109cb565b6101cd6102e03660046118eb565b6109d6565b6101826102f3366004611a75565b610a0e565b610290610306366004611a32565b610b90565b61016561031936600461187e565b6001600160a01b03918216600090815260076020908152604080832093909416825291909152205460ff1690565b6101cd610355366004611864565b610c5a565b6101a2610368366004611a75565b6000908152600b60205260409020546001600160a01b031690565b600061038e82610cd3565b92915050565b6060600280546103a390611d30565b80601f01602080910402602001604051908101604052809291908181526020018280546103cf90611d30565b801561041c5780601f106103f15761010080835404028352916020019161041c565b820191906000526020600020905b8154815290600101906020018083116103ff57829003601f168201915b5050505050905090565b600061043182610d13565b506000908152600660205260409020546001600160a01b031690565b6000610458826108c2565b9050806001600160a01b0316836001600160a01b031614156104cb5760405162461bcd60e51b815260206004820152602160248201527f4552433732313a20617070726f76616c20746f2063757272656e74206f776e656044820152603960f91b60648201526084015b60405180910390fd5b336001600160a01b03821614806104e757506104e78133610319565b6105595760405162461bcd60e51b815260206004820152603e60248201527f4552433732313a20617070726f76652063616c6c6572206973206e6f7420746f60448201527f6b656e206f776e6572206e6f7220617070726f76656420666f7220616c6c000060648201526084016104c2565b6105638383610d72565b505050565b6060600061057560095490565b9050600061058233610922565b905060008167ffffffffffffffff8111156105ad57634e487b7160e01b600052604160045260246000fd5b6040519080825280602002602001820160405280156105d6578160200160208202803683370190505b5090506000805b848110156106515780336105f0826108c2565b6001600160a01b031614610604575061063f565b8084848151811061062557634e487b7160e01b600052603260045260246000fd5b602090810291909101015261063b600184611ca2565b9250505b8061064981611d6b565b9150506105dd565b5090949350505050565b6106653382610de0565b6106815760405162461bcd60e51b81526004016104c290611c54565b610563838383610e5f565b60008281526001602090815260408083208151808301909252546001600160a01b038116808352600160a01b9091046001600160601b03169282019290925282916107015750604080518082019091526000546001600160a01b0381168252600160a01b90046001600160601b031660208201525b602081015160009061271090610720906001600160601b031687611cce565b61072a9190611cba565b915196919550909350505050565b610563838383604051806020016040528060008152506109d6565b61075b610ffb565b805161076e90600d9060208401906116fc565b5050565b6060600061077f60095490565b90506000805b828110156107d4576000818152600b602052604090205481906001600160a01b031633146107b357506107c2565b6107be600184611ca2565b9250505b806107cc81611d6b565b915050610785565b5060008167ffffffffffffffff8111156107fe57634e487b7160e01b600052604160045260246000fd5b604051908082528060200260200182016040528015610827578160200160208202803683370190505b5090506000805b84811015610651576000610843826001611ca2565b6000818152600b60205260409020549091506001600160a01b0316331461086a57506108a5565b8084848151811061088b57634e487b7160e01b600052603260045260246000fd5b60209081029190910101526108a1600184611ca2565b9250505b806108af81611d6b565b91505061082e565b610563838383611055565b6000818152600460205260408120546001600160a01b03168061038e5760405162461bcd60e51b8152602060048201526018602482015277115490cdcc8c4e881a5b9d985b1a59081d1bdad95b88125160421b60448201526064016104c2565b60006001600160a01b03821661098c5760405162461bcd60e51b815260206004820152602960248201527f4552433732313a2061646472657373207a65726f206973206e6f7420612076616044820152683634b21037bbb732b960b91b60648201526084016104c2565b506001600160a01b031660009081526005602052604090205490565b6109b0610ffb565b6109ba6000611163565b565b6060600380546103a390611d30565b61076e3383836111b5565b6109e03383610de0565b6109fc5760405162461bcd60e51b81526004016104c290611c54565b610a0884848484611284565b50505050565b6000818152600460205260409020546060906001600160a01b0316610a8d5760405162461bcd60e51b815260206004820152602f60248201527f4552433732314d657461646174613a2055524920717565727920666f72206e6f60448201526e3732bc34b9ba32b73a103a37b5b2b760891b60648201526084016104c2565b6000828152600c602052604081208054610aa690611d30565b80601f0160208091040260200160405190810160405280929190818152602001828054610ad290611d30565b8015610b1f5780601f10610af457610100808354040283529160200191610b1f565b820191906000526020600020905b815481529060010190602001808311610b0257829003601f168201915b505050505090506000610b306112b7565b9050805160001415610b43575092915050565b815115610b75578082604051602001610b5d929190611b15565b60405160208183030381529060405292505050919050565b80610b7f856112c6565b604051602001610b5d929190611b15565b600080610b9c60095490565b600081905260046020529050610bb233826113e0565b6000818152600b6020526040902080546001600160a01b03191633179055610bda8185611522565b610be58133856108b7565b610bf3600980546001019055565b600a54610c0a906001600160a01b031660016109cb565b600a5460405182917f9ef9d09a98563c827f651a028105395cc17f94ef23eb26b70d241439386a62f491610c4b9188916001600160a01b0390911690611bd8565b60405180910390a29392505050565b610c62610ffb565b6001600160a01b038116610cc75760405162461bcd60e51b815260206004820152602660248201527f4f776e61626c653a206e6577206f776e657220697320746865207a65726f206160448201526564647265737360d01b60648201526084016104c2565b610cd081611163565b50565b60006001600160e01b031982166380ac58cd60e01b1480610d0457506001600160e01b03198216635b5e139f60e01b145b8061038e575061038e826115ba565b6000818152600460205260409020546001600160a01b0316610cd05760405162461bcd60e51b8152602060048201526018602482015277115490cdcc8c4e881a5b9d985b1a59081d1bdad95b88125160421b60448201526064016104c2565b600081815260066020526040902080546001600160a01b0319166001600160a01b0384169081179091558190610da7826108c2565b6001600160a01b03167f8c5be1e5ebec7d5bd14f71427d1e84f3dd0314c0f7b2291e5b200ac8c7c3b92560405160405180910390a45050565b600080610dec836108c2565b9050806001600160a01b0316846001600160a01b03161480610e3357506001600160a01b0380821660009081526007602090815260408083209388168352929052205460ff165b80610e575750836001600160a01b0316610e4c84610426565b6001600160a01b0316145b949350505050565b826001600160a01b0316610e72826108c2565b6001600160a01b031614610ed65760405162461bcd60e51b815260206004820152602560248201527f4552433732313a207472616e736665722066726f6d20696e636f72726563742060448201526437bbb732b960d91b60648201526084016104c2565b6001600160a01b038216610f385760405162461bcd60e51b8152602060048201526024808201527f4552433732313a207472616e7366657220746f20746865207a65726f206164646044820152637265737360e01b60648201526084016104c2565b610f43600082610d72565b6001600160a01b0383166000908152600560205260408120805460019290610f6c908490611ced565b90915550506001600160a01b0382166000908152600560205260408120805460019290610f9a908490611ca2565b909155505060008181526004602052604080822080546001600160a01b0319166001600160a01b0386811691821790925591518493918716917fddf252ad1be2c89b69c2b068fc378daa952ba7f163c4a11628f55a4df523b3ef91a4505050565b6008546001600160a01b031633146109ba5760405162461bcd60e51b815260206004820181905260248201527f4f776e61626c653a2063616c6c6572206973206e6f7420746865206f776e657260448201526064016104c2565b6127106001600160601b03821611156110c35760405162461bcd60e51b815260206004820152602a60248201527f455243323938313a20726f79616c7479206665652077696c6c206578636565646044820152692073616c65507269636560b01b60648201526084016104c2565b6001600160a01b0382166111195760405162461bcd60e51b815260206004820152601b60248201527f455243323938313a20496e76616c696420706172616d6574657273000000000060448201526064016104c2565b6040805180820182526001600160a01b0393841681526001600160601b0392831660208083019182526000968752600190529190942093519051909116600160a01b029116179055565b600880546001600160a01b038381166001600160a01b0319831681179093556040519116919082907f8be0079c531659141344cd1fd0a4f28419497f9722a3daafe3b4186f6b6457e090600090a35050565b816001600160a01b0316836001600160a01b031614156112175760405162461bcd60e51b815260206004820152601960248201527f4552433732313a20617070726f766520746f2063616c6c65720000000000000060448201526064016104c2565b6001600160a01b03838116600081815260076020908152604080832094871680845294825291829020805460ff191686151590811790915591519182527f17307eab39ab6107e8899845ad3d59bd9653f200f220920489ca2b5937696c31910160405180910390a3505050565b61128f848484610e5f565b61129b848484846115ef565b610a085760405162461bcd60e51b81526004016104c290611c02565b6060600d80546103a390611d30565b6060816112ea5750506040805180820190915260018152600360fc1b602082015290565b8160005b811561131457806112fe81611d6b565b915061130d9050600a83611cba565b91506112ee565b60008167ffffffffffffffff81111561133d57634e487b7160e01b600052604160045260246000fd5b6040519080825280601f01601f191660200182016040528015611367576020820181803683370190505b5090505b8415610e575761137c600183611ced565b9150611389600a86611d86565b611394906030611ca2565b60f81b8183815181106113b757634e487b7160e01b600052603260045260246000fd5b60200101906001600160f81b031916908160001a9053506113d9600a86611cba565b945061136b565b6001600160a01b0382166114365760405162461bcd60e51b815260206004820181905260248201527f4552433732313a206d696e7420746f20746865207a65726f206164647265737360448201526064016104c2565b6000818152600460205260409020546001600160a01b03161561149b5760405162461bcd60e51b815260206004820152601c60248201527f4552433732313a20746f6b656e20616c7265616479206d696e7465640000000060448201526064016104c2565b6001600160a01b03821660009081526005602052604081208054600192906114c4908490611ca2565b909155505060008181526004602052604080822080546001600160a01b0319166001600160a01b03861690811790915590518392907fddf252ad1be2c89b69c2b068fc378daa952ba7f163c4a11628f55a4df523b3ef908290a45050565b6000828152600460205260409020546001600160a01b031661159b5760405162461bcd60e51b815260206004820152602c60248201527f4552433732314d657461646174613a2055524920736574206f66206e6f6e657860448201526b34b9ba32b73a103a37b5b2b760a11b60648201526084016104c2565b6000828152600c602090815260409091208251610563928401906116fc565b60006001600160e01b0319821663152a902d60e11b148061038e57506301ffc9a760e01b6001600160e01b031983161461038e565b60006001600160a01b0384163b156116f157604051630a85bd0160e11b81526001600160a01b0385169063150b7a0290611633903390899088908890600401611b44565b602060405180830381600087803b15801561164d57600080fd5b505af192505050801561167d575060408051601f3d908101601f1916820190925261167a918101906119e3565b60015b6116d7573d8080156116ab576040519150601f19603f3d011682016040523d82523d6000602084013e6116b0565b606091505b5080516116cf5760405162461bcd60e51b81526004016104c290611c02565b805181602001fd5b6001600160e01b031916630a85bd0160e11b149050610e57565b506001949350505050565b82805461170890611d30565b90600052602060002090601f01602090048101928261172a5760008555611770565b82601f1061174357805160ff1916838001178555611770565b82800160010185558215611770579182015b82811115611770578251825591602001919060010190611755565b5061177c929150611780565b5090565b5b8082111561177c5760008155600101611781565b600067ffffffffffffffff808411156117b0576117b0611dc6565b604051601f8501601f19908116603f011681019082821181831017156117d8576117d8611dc6565b816040528093508581528686860111156117f157600080fd5b858560208301376000602087830101525050509392505050565b80356001600160a01b038116811461182257600080fd5b919050565b600082601f830112611837578081fd5b61184683833560208501611795565b9392505050565b80356001600160601b038116811461182257600080fd5b600060208284031215611875578081fd5b6118468261180b565b60008060408385031215611890578081fd5b6118998361180b565b91506118a76020840161180b565b90509250929050565b6000806000606084860312156118c4578081fd5b6118cd8461180b565b92506118db6020850161180b565b9150604084013590509250925092565b60008060008060808587031215611900578081fd5b6119098561180b565b93506119176020860161180b565b925060408501359150606085013567ffffffffffffffff811115611939578182fd5b8501601f81018713611949578182fd5b61195887823560208401611795565b91505092959194509250565b60008060408385031215611976578182fd5b61197f8361180b565b915060208301358015158114611993578182fd5b809150509250929050565b600080604083850312156119b0578182fd5b6119b98361180b565b946020939093013593505050565b6000602082840312156119d8578081fd5b813561184681611ddc565b6000602082840312156119f4578081fd5b815161184681611ddc565b600060208284031215611a10578081fd5b813567ffffffffffffffff811115611a26578182fd5b610e5784828501611827565b60008060408385031215611a44578182fd5b823567ffffffffffffffff811115611a5a578283fd5b611a6685828601611827565b9250506118a76020840161184d565b600060208284031215611a86578081fd5b5035919050565b600080600060608486031215611aa1578283fd5b83359250611ab16020850161180b565b9150611abf6040850161184d565b90509250925092565b60008060408385031215611ada578182fd5b50508035926020909101359150565b60008151808452611b01816020860160208601611d04565b601f01601f19169290920160200192915050565b60008351611b27818460208801611d04565b835190830190611b3b818360208801611d04565b01949350505050565b6001600160a01b0385811682528416602082015260408101839052608060608201819052600090611b7790830184611ae9565b9695505050505050565b6020808252825182820181905260009190848201906040850190845b81811015611bb957835183529284019291840191600101611b9d565b50909695505050505050565b6020815260006118466020830184611ae9565b604081526000611beb6040830185611ae9565b905060018060a01b03831660208301529392505050565b60208082526032908201527f4552433732313a207472616e7366657220746f206e6f6e20455243373231526560408201527131b2b4bb32b91034b6b83632b6b2b73a32b960711b606082015260800190565b6020808252602e908201527f4552433732313a2063616c6c6572206973206e6f7420746f6b656e206f776e6560408201526d1c881b9bdc88185c1c1c9bdd995960921b606082015260800190565b60008219821115611cb557611cb5611d9a565b500190565b600082611cc957611cc9611db0565b500490565b6000816000190483118215151615611ce857611ce8611d9a565b500290565b600082821015611cff57611cff611d9a565b500390565b60005b83811015611d1f578181015183820152602001611d07565b83811115610a085750506000910152565b600181811c90821680611d4457607f821691505b60208210811415611d6557634e487b7160e01b600052602260045260246000fd5b50919050565b6000600019821415611d7f57611d7f611d9a565b5060010190565b600082611d9557611d95611db0565b500690565b634e487b7160e01b600052601160045260246000fd5b634e487b7160e01b600052601260045260246000fd5b634e487b7160e01b600052604160045260246000fd5b6001600160e01b031981168114610cd057600080fdfea26469706673582212204af76a0b241eb593dd910b2174de04e43ff25fa6f3c82b54b3dca71bb7aee03164736f6c63430008040033",
  "linkReferences": {},
  "deployedLinkReferences": {}
}