{
  "_format": "hh-sol-artifact-1",
  "contractName": "LittleAlchemy",
  "sourceName": "contracts/LittleAlchemy.sol",
  "abi": [
    {
      "inputs": [
        {
          "internalType": "contract ALCHI",
          "name": "_token",
          "type": "address"
        }
      ],
      "stateMutability": "nonpayable",
      "type": "constructor"
    },
    {
      "anonymous": false,
      "inputs": [
        {
          "indexed": true,
          "internalType": "address",
          "name": "account",
          "type": "address"
        },
        {
          "indexed": true,
          "internalType": "address",
          "name": "operator",
          "type": "address"
        },
        {
          "indexed": false,
          "internalType": "bool",
          "name": "approved",
          "type": "bool"
        }
      ],
      "name": "ApprovalForAll",
      "type": "event"
    },
    {
      "inputs": [],
      "name": "mintBitcoin",
      "outputs": [],
      "stateMutability": "nonpayable",
      "type": "function"
    },
    {
      "inputs": [],
      "name": "mintBlockchain",
      "outputs": [],
      "stateMutability": "nonpayable",
      "type": "function"
    },
    {
      "inputs": [],
      "name": "mintComputer",
      "outputs": [],
      "stateMutability": "nonpayable",
      "type": "function"
    },
    {
      "inputs": [],
      "name": "mintElectricity",
      "outputs": [],
      "stateMutability": "nonpayable",
      "type": "function"
    },
    {
      "inputs": [],
      "name": "mintEnergy",
      "outputs": [],
      "stateMutability": "nonpayable",
      "type": "function"
    },
    {
      "inputs": [],
      "name": "mintEyeglasse",
      "outputs": [],
      "stateMutability": "nonpayable",
      "type": "function"
    },
    {
      "inputs": [],
      "name": "mintGlass",
      "outputs": [],
      "stateMutability": "nonpayable",
      "type": "function"
    },
    {
      "inputs": [],
      "name": "mintHuman",
      "outputs": [],
      "stateMutability": "nonpayable",
      "type": "function"
    },
    {
      "inputs": [],
      "name": "mintInternet",
      "outputs": [],
      "stateMutability": "nonpayable",
      "type": "function"
    },
    {
      "inputs": [],
      "name": "mintLava",
      "outputs": [],
      "stateMutability": "nonpayable",
      "type": "function"
    },
    {
      "inputs": [],
      "name": "mintLife",
      "outputs": [],
      "stateMutability": "nonpayable",
      "type": "function"
    },
    {
      "inputs": [],
      "name": "mintMetal",
      "outputs": [],
      "stateMutability": "nonpayable",
      "type": "function"
    },
    {
      "inputs": [],
      "name": "mintMud",
      "outputs": [],
      "stateMutability": "nonpayable",
      "type": "function"
    },
    {
      "inputs": [],
      "name": "mintNerd",
      "outputs": [],
      "stateMutability": "nonpayable",
      "type": "function"
    },
    {
      "inputs": [],
      "name": "mintPlant",
      "outputs": [],
      "stateMutability": "nonpayable",
      "type": "function"
    },
    {
      "inputs": [],
      "name": "mintRain",
      "outputs": [],
      "stateMutability": "nonpayable",
      "type": "function"
    },
    {
      "inputs": [],
      "name": "mintRock",
      "outputs": [],
      "stateMutability": "nonpayable",
      "type": "function"
    },
    {
      "inputs": [],
      "name": "mintSand",
      "outputs": [],
      "stateMutability": "nonpayable",
      "type": "function"
    },
    {
      "inputs": [],
      "name": "mintStandard",
      "outputs": [],
      "stateMutability": "nonpayable",
      "type": "function"
    },
    {
      "inputs": [],
      "name": "mintSteam",
      "outputs": [],
      "stateMutability": "nonpayable",
      "type": "function"
    },
    {
      "inputs": [],
      "name": "mintSwamp",
      "outputs": [],
      "stateMutability": "nonpayable",
      "type": "function"
    },
    {
      "inputs": [
        {
          "internalType": "address",
          "name": "from",
          "type": "address"
        },
        {
          "internalType": "address",
          "name": "to",
          "type": "address"
        },
        {
          "internalType": "uint256[]",
          "name": "ids",
          "type": "uint256[]"
        },
        {
          "internalType": "uint256[]",
          "name": "amounts",
          "type": "uint256[]"
        },
        {
          "internalType": "bytes",
          "name": "data",
          "type": "bytes"
        }
      ],
      "name": "safeBatchTransferFrom",
      "outputs": [],
      "stateMutability": "nonpayable",
      "type": "function"
    },
    {
      "inputs": [
        {
          "internalType": "address",
          "name": "from",
          "type": "address"
        },
        {
          "internalType": "address",
          "name": "to",
          "type": "address"
        },
        {
          "internalType": "uint256",
          "name": "id",
          "type": "uint256"
        },
        {
          "internalType": "uint256",
          "name": "amount",
          "type": "uint256"
        },
        {
          "internalType": "bytes",
          "name": "data",
          "type": "bytes"
        }
      ],
      "name": "safeTransferFrom",
      "outputs": [],
      "stateMutability": "nonpayable",
      "type": "function"
    },
    {
      "inputs": [
        {
          "internalType": "address",
          "name": "operator",
          "type": "address"
        },
        {
          "internalType": "bool",
          "name": "approved",
          "type": "bool"
        }
      ],
      "name": "setApprovalForAll",
      "outputs": [],
      "stateMutability": "nonpayable",
      "type": "function"
    },
    {
      "inputs": [
        {
          "internalType": "address",
          "name": "_account",
          "type": "address"
        }
      ],
      "name": "setfundAddress",
      "outputs": [],
      "stateMutability": "nonpayable",
      "type": "function"
    },
    {
      "anonymous": false,
      "inputs": [
        {
          "indexed": true,
          "internalType": "address",
          "name": "operator",
          "type": "address"
        },
        {
          "indexed": true,
          "internalType": "address",
          "name": "from",
          "type": "address"
        },
        {
          "indexed": true,
          "internalType": "address",
          "name": "to",
          "type": "address"
        },
        {
          "indexed": false,
          "internalType": "uint256[]",
          "name": "ids",
          "type": "uint256[]"
        },
        {
          "indexed": false,
          "internalType": "uint256[]",
          "name": "values",
          "type": "uint256[]"
        }
      ],
      "name": "TransferBatch",
      "type": "event"
    },
    {
      "anonymous": false,
      "inputs": [
        {
          "indexed": true,
          "internalType": "address",
          "name": "operator",
          "type": "address"
        },
        {
          "indexed": true,
          "internalType": "address",
          "name": "from",
          "type": "address"
        },
        {
          "indexed": true,
          "internalType": "address",
          "name": "to",
          "type": "address"
        },
        {
          "indexed": false,
          "internalType": "uint256",
          "name": "id",
          "type": "uint256"
        },
        {
          "indexed": false,
          "internalType": "uint256",
          "name": "value",
          "type": "uint256"
        }
      ],
      "name": "TransferSingle",
      "type": "event"
    },
    {
      "anonymous": false,
      "inputs": [
        {
          "indexed": false,
          "internalType": "string",
          "name": "value",
          "type": "string"
        },
        {
          "indexed": true,
          "internalType": "uint256",
          "name": "id",
          "type": "uint256"
        }
      ],
      "name": "URI",
      "type": "event"
    },
    {
      "inputs": [],
      "name": "Air",
      "outputs": [
        {
          "internalType": "uint256",
          "name": "",
          "type": "uint256"
        }
      ],
      "stateMutability": "view",
      "type": "function"
    },
    {
      "inputs": [
        {
          "internalType": "address",
          "name": "account",
          "type": "address"
        },
        {
          "internalType": "uint256",
          "name": "id",
          "type": "uint256"
        }
      ],
      "name": "balanceOf",
      "outputs": [
        {
          "internalType": "uint256",
          "name": "",
          "type": "uint256"
        }
      ],
      "stateMutability": "view",
      "type": "function"
    },
    {
      "inputs": [
        {
          "internalType": "address[]",
          "name": "accounts",
          "type": "address[]"
        },
        {
          "internalType": "uint256[]",
          "name": "ids",
          "type": "uint256[]"
        }
      ],
      "name": "balanceOfBatch",
      "outputs": [
        {
          "internalType": "uint256[]",
          "name": "",
          "type": "uint256[]"
        }
      ],
      "stateMutability": "view",
      "type": "function"
    },
    {
      "inputs": [],
      "name": "Bitcoin",
      "outputs": [
        {
          "internalType": "uint256",
          "name": "",
          "type": "uint256"
        }
      ],
      "stateMutability": "view",
      "type": "function"
    },
    {
      "inputs": [],
      "name": "Blockchain",
      "outputs": [
        {
          "internalType": "uint256",
          "name": "",
          "type": "uint256"
        }
      ],
      "stateMutability": "view",
      "type": "function"
    },
    {
      "inputs": [],
      "name": "Computer",
      "outputs": [
        {
          "internalType": "uint256",
          "name": "",
          "type": "uint256"
        }
      ],
      "stateMutability": "view",
      "type": "function"
    },
    {
      "inputs": [],
      "name": "Earth",
      "outputs": [
        {
          "internalType": "uint256",
          "name": "",
          "type": "uint256"
        }
      ],
      "stateMutability": "view",
      "type": "function"
    },
    {
      "inputs": [],
      "name": "Electricity",
      "outputs": [
        {
          "internalType": "uint256",
          "name": "",
          "type": "uint256"
        }
      ],
      "stateMutability": "view",
      "type": "function"
    },
    {
      "inputs": [],
      "name": "Energy",
      "outputs": [
        {
          "internalType": "uint256",
          "name": "",
          "type": "uint256"
        }
      ],
      "stateMutability": "view",
      "type": "function"
    },
    {
      "inputs": [],
      "name": "Eyeglasse",
      "outputs": [
        {
          "internalType": "uint256",
          "name": "",
          "type": "uint256"
        }
      ],
      "stateMutability": "view",
      "type": "function"
    },
    {
      "inputs": [],
      "name": "fee",
      "outputs": [
        {
          "internalType": "uint256",
          "name": "",
          "type": "uint256"
        }
      ],
      "stateMutability": "view",
      "type": "function"
    },
    {
      "inputs": [],
      "name": "Fire",
      "outputs": [
        {
          "internalType": "uint256",
          "name": "",
          "type": "uint256"
        }
      ],
      "stateMutability": "view",
      "type": "function"
    },
    {
      "inputs": [],
      "name": "Glass",
      "outputs": [
        {
          "internalType": "uint256",
          "name": "",
          "type": "uint256"
        }
      ],
      "stateMutability": "view",
      "type": "function"
    },
    {
      "inputs": [],
      "name": "Human",
      "outputs": [
        {
          "internalType": "uint256",
          "name": "",
          "type": "uint256"
        }
      ],
      "stateMutability": "view",
      "type": "function"
    },
    {
      "inputs": [],
      "name": "Internet",
      "outputs": [
        {
          "internalType": "uint256",
          "name": "",
          "type": "uint256"
        }
      ],
      "stateMutability": "view",
      "type": "function"
    },
    {
      "inputs": [
        {
          "internalType": "address",
          "name": "account",
          "type": "address"
        },
        {
          "internalType": "address",
          "name": "operator",
          "type": "address"
        }
      ],
      "name": "isApprovedForAll",
      "outputs": [
        {
          "internalType": "bool",
          "name": "",
          "type": "bool"
        }
      ],
      "stateMutability": "view",
      "type": "function"
    },
    {
      "inputs": [],
      "name": "Lava",
      "outputs": [
        {
          "internalType": "uint256",
          "name": "",
          "type": "uint256"
        }
      ],
      "stateMutability": "view",
      "type": "function"
    },
    {
      "inputs": [],
      "name": "Life",
      "outputs": [
        {
          "internalType": "uint256",
          "name": "",
          "type": "uint256"
        }
      ],
      "stateMutability": "view",
      "type": "function"
    },
    {
      "inputs": [],
      "name": "Metal",
      "outputs": [
        {
          "internalType": "uint256",
          "name": "",
          "type": "uint256"
        }
      ],
      "stateMutability": "view",
      "type": "function"
    },
    {
      "inputs": [],
      "name": "Mud",
      "outputs": [
        {
          "internalType": "uint256",
          "name": "",
          "type": "uint256"
        }
      ],
      "stateMutability": "view",
      "type": "function"
    },
    {
      "inputs": [],
      "name": "Nerd",
      "outputs": [
        {
          "internalType": "uint256",
          "name": "",
          "type": "uint256"
        }
      ],
      "stateMutability": "view",
      "type": "function"
    },
    {
      "inputs": [],
      "name": "Plant",
      "outputs": [
        {
          "internalType": "uint256",
          "name": "",
          "type": "uint256"
        }
      ],
      "stateMutability": "view",
      "type": "function"
    },
    {
      "inputs": [],
      "name": "Rain",
      "outputs": [
        {
          "internalType": "uint256",
          "name": "",
          "type": "uint256"
        }
      ],
      "stateMutability": "view",
      "type": "function"
    },
    {
      "inputs": [],
      "name": "Rock",
      "outputs": [
        {
          "internalType": "uint256",
          "name": "",
          "type": "uint256"
        }
      ],
      "stateMutability": "view",
      "type": "function"
    },
    {
      "inputs": [],
      "name": "Sand",
      "outputs": [
        {
          "internalType": "uint256",
          "name": "",
          "type": "uint256"
        }
      ],
      "stateMutability": "view",
      "type": "function"
    },
    {
      "inputs": [],
      "name": "Steam",
      "outputs": [
        {
          "internalType": "uint256",
          "name": "",
          "type": "uint256"
        }
      ],
      "stateMutability": "view",
      "type": "function"
    },
    {
      "inputs": [
        {
          "internalType": "bytes4",
          "name": "interfaceId",
          "type": "bytes4"
        }
      ],
      "name": "supportsInterface",
      "outputs": [
        {
          "internalType": "bool",
          "name": "",
          "type": "bool"
        }
      ],
      "stateMutability": "view",
      "type": "function"
    },
    {
      "inputs": [],
      "name": "Swamp",
      "outputs": [
        {
          "internalType": "uint256",
          "name": "",
          "type": "uint256"
        }
      ],
      "stateMutability": "view",
      "type": "function"
    },
    {
      "inputs": [],
      "name": "token",
      "outputs": [
        {
          "internalType": "contract ALCHI",
          "name": "",
          "type": "address"
        }
      ],
      "stateMutability": "view",
      "type": "function"
    },
    {
      "inputs": [
        {
          "internalType": "uint256",
          "name": "",
          "type": "uint256"
        }
      ],
      "name": "uri",
      "outputs": [
        {
          "internalType": "string",
          "name": "",
          "type": "string"
        }
      ],
      "stateMutability": "view",
      "type": "function"
    },
    {
      "inputs": [],
      "name": "Water",
      "outputs": [
        {
          "internalType": "uint256",
          "name": "",
          "type": "uint256"
        }
      ],
      "stateMutability": "view",
      "type": "function"
    }
  ],
  "bytecode": "0x60806040523480156200001157600080fd5b50604051620047f4380380620047f4833981810160405260208110156200003757600080fd5b81019080805190602001909291905050506040518060a00160405280606c815260200162004788606c91396200007a6301ffc9a760e01b6200015460201b60201c565b6200008b816200025d60201b60201c565b620000a363d9b67a2660e01b6200015460201b60201c565b620000bb630e89341c60e01b6200015460201b60201c565b5080600460006101000a81548173ffffffffffffffffffffffffffffffffffffffff021916908373ffffffffffffffffffffffffffffffffffffffff16021790555033600660006101000a81548173ffffffffffffffffffffffffffffffffffffffff021916908373ffffffffffffffffffffffffffffffffffffffff16021790555067016345785d8a0000600581905550506200032f565b63ffffffff60e01b817bffffffffffffffffffffffffffffffffffffffffffffffffffffffff19161415620001f1576040517f08c379a000000000000000000000000000000000000000000000000000000000815260040180806020018281038252601c8152602001807f4552433136353a20696e76616c696420696e746572666163652069640000000081525060200191505060405180910390fd5b6001600080837bffffffffffffffffffffffffffffffffffffffffffffffffffffffff19167bffffffffffffffffffffffffffffffffffffffffffffffffffffffff1916815260200190815260200160002060006101000a81548160ff02191690831515021790555050565b80600390805190602001906200027592919062000279565b5050565b828054600181600116156101000203166002900490600052602060002090601f016020900481019282620002b15760008555620002fd565b82601f10620002cc57805160ff1916838001178555620002fd565b82800160010185558215620002fd579182015b82811115620002fc578251825591602001919060010190620002df565b5b5090506200030c919062000310565b5090565b5b808211156200032b57600081600090555060010162000311565b5090565b614449806200033f6000396000f3fe608060405234801561001057600080fd5b50600436106102945760003560e01c80636068955711610167578063ac6dc89d116100ce578063e985e9c511610087578063e985e9c514610b8d578063eb2a1f4f14610c07578063f242432a14610c25578063f2fde38b14610d34578063f37633f914610d78578063fc0c546a14610d9657610294565b8063ac6dc89d14610b01578063ae726b3d14610b1f578063cb9d7c1614610b29578063cbf904b414610b33578063d50b57c314610b51578063d73412db14610b6f57610294565b8063784529861161012057806378452986146109f95780637e06166014610a27578063a151939f14610a45578063a1ac2fef14610a89578063a22cb46514610a93578063a23b791a14610ae357610294565b806360689557146109595780636aecfb3f146109775780636e69adcf146109955780636f0fa17f146109b357806374afa174146109bd57806376bde502146109db57610294565b80632eb2c2d61161020b57806353b1b49b116101c457806353b1b49b146108b957806355aeceea146108d7578063588e3c7a146108f55780635952828c146109135780635f2f63aa146109315780635f72cc8f1461093b57610294565b80632eb2c2d6146104a55780632f35a71e146106c85780633bb01e51146106e6578063474ce368146106f05780634e1273f41461070e578063519fdfc3146108af57610294565b806316625b8a1161025d57806316625b8a1461042d57806319c34d1e1461044b578063214a827c146104695780632932f0d214610473578063299ccd011461047d5780632aaa6b191461049b57610294565b8062fdd58e1461029957806301ffc9a7146102fb57806308f561b81461035e5780630e89341c1461036857806314c539ef1461040f575b600080fd5b6102e5600480360360408110156102af57600080fd5b81019080803573ffffffffffffffffffffffffffffffffffffffff16906020019092919080359060200190929190505050610dca565b6040518082815260200191505060405180910390f35b6103466004803603602081101561031157600080fd5b8101908080357bffffffffffffffffffffffffffffffffffffffffffffffffffffffff19169060200190929190505050610eaa565b60405180821515815260200191505060405180910390f35b610366610f11565b005b6103946004803603602081101561037e57600080fd5b81019080803590602001909291905050506110e7565b6040518080602001828103825283818151815260200191508051906020019080838360005b838110156103d45780820151818401526020810190506103b9565b50505050905090810190601f1680156104015780820380516001836020036101000a031916815260200191505b509250505060405180910390f35b61041761118b565b6040518082815260200191505060405180910390f35b610435611190565b6040518082815260200191505060405180910390f35b610453611195565b6040518082815260200191505060405180910390f35b61047161119a565b005b61047b6113f3565b005b6104856115c9565b6040518082815260200191505060405180910390f35b6104a36115ce565b005b6106c6600480360360a08110156104bb57600080fd5b81019080803573ffffffffffffffffffffffffffffffffffffffff169060200190929190803573ffffffffffffffffffffffffffffffffffffffff1690602001909291908035906020019064010000000081111561051857600080fd5b82018360208201111561052a57600080fd5b8035906020019184602083028401116401000000008311171561054c57600080fd5b919080806020026020016040519081016040528093929190818152602001838360200280828437600081840152601f19601f820116905080830192505050505050509192919290803590602001906401000000008111156105ac57600080fd5b8201836020820111156105be57600080fd5b803590602001918460208302840111640100000000831117156105e057600080fd5b919080806020026020016040519081016040528093929190818152602001838360200280828437600081840152601f19601f8201169050808301925050505050505091929192908035906020019064010000000081111561064057600080fd5b82018360208201111561065257600080fd5b8035906020019184600183028401116401000000008311171561067457600080fd5b91908080601f016020809104026020016040519081016040528093929190818152602001838380828437600081840152601f19601f820116905080830192505050505050509192919290505050611827565b005b6106d0611cb2565b6040518082815260200191505060405180910390f35b6106ee611cb7565b005b6106f8611e8d565b6040518082815260200191505060405180910390f35b6108586004803603604081101561072457600080fd5b810190808035906020019064010000000081111561074157600080fd5b82018360208201111561075357600080fd5b8035906020019184602083028401116401000000008311171561077557600080fd5b919080806020026020016040519081016040528093929190818152602001838360200280828437600081840152601f19601f820116905080830192505050505050509192919290803590602001906401000000008111156107d557600080fd5b8201836020820111156107e757600080fd5b8035906020019184602083028401116401000000008311171561080957600080fd5b919080806020026020016040519081016040528093929190818152602001838360200280828437600081840152601f19601f820116905080830192505050505050509192919290505050611e92565b6040518080602001828103825283818151815260200191508051906020019060200280838360005b8381101561089b578082015181840152602081019050610880565b505050509050019250505060405180910390f35b6108b7612084565b005b6108c1612259565b6040518082815260200191505060405180910390f35b6108df61225e565b6040518082815260200191505060405180910390f35b6108fd612263565b6040518082815260200191505060405180910390f35b61091b612268565b6040518082815260200191505060405180910390f35b61093961226d565b005b6109436124c6565b6040518082815260200191505060405180910390f35b6109616124cb565b6040518082815260200191505060405180910390f35b61097f6124d0565b6040518082815260200191505060405180910390f35b61099d6124d5565b6040518082815260200191505060405180910390f35b6109bb6124da565b005b6109c5612733565b6040518082815260200191505060405180910390f35b6109e3612738565b6040518082815260200191505060405180910390f35b610a2560048036036020811015610a0f57600080fd5b810190808035906020019092919050505061273d565b005b610a2f6127a1565b6040518082815260200191505060405180910390f35b610a8760048036036020811015610a5b57600080fd5b81019080803573ffffffffffffffffffffffffffffffffffffffff1690602001909291905050506127a6565b005b610a91612844565b005b610ae160048036036040811015610aa957600080fd5b81019080803573ffffffffffffffffffffffffffffffffffffffff169060200190929190803515159060200190929190505050612a9d565b005b610aeb612c36565b6040518082815260200191505060405180910390f35b610b09612c3b565b6040518082815260200191505060405180910390f35b610b27612c40565b005b610b31612f19565b005b610b3b613172565b6040518082815260200191505060405180910390f35b610b59613177565b6040518082815260200191505060405180910390f35b610b7761317c565b6040518082815260200191505060405180910390f35b610bef60048036036040811015610ba357600080fd5b81019080803573ffffffffffffffffffffffffffffffffffffffff169060200190929190803573ffffffffffffffffffffffffffffffffffffffff169060200190929190505050613181565b60405180821515815260200191505060405180910390f35b610c0f613215565b6040518082815260200191505060405180910390f35b610d32600480360360a0811015610c3b57600080fd5b81019080803573ffffffffffffffffffffffffffffffffffffffff169060200190929190803573ffffffffffffffffffffffffffffffffffffffff169060200190929190803590602001909291908035906020019092919080359060200190640100000000811115610cac57600080fd5b820183602082011115610cbe57600080fd5b80359060200191846001830284011164010000000083111715610ce057600080fd5b91908080601f016020809104026020016040519081016040528093929190818152602001838380828437600081840152601f19601f82011690508083019250505050505050919291929050505061321a565b005b610d7660048036036020811015610d4a57600080fd5b81019080803573ffffffffffffffffffffffffffffffffffffffff16906020019092919050505061358f565b005b610d80613664565b6040518082815260200191505060405180910390f35b610d9e613669565b604051808273ffffffffffffffffffffffffffffffffffffffff16815260200191505060405180910390f35b60008073ffffffffffffffffffffffffffffffffffffffff168373ffffffffffffffffffffffffffffffffffffffff161415610e51576040517f08c379a000000000000000000000000000000000000000000000000000000000815260040180806020018281038252602b815260200180614273602b913960400191505060405180910390fd5b6001600083815260200190815260200160002060008473ffffffffffffffffffffffffffffffffffffffff1673ffffffffffffffffffffffffffffffffffffffff16815260200190815260200160002054905092915050565b6000806000837bffffffffffffffffffffffffffffffffffffffffffffffffffffffff19167bffffffffffffffffffffffffffffffffffffffffffffffffffffffff1916815260200190815260200160002060009054906101000a900460ff169050919050565b6000610f1e336003610dca565b14610f91576040517f08c379a00000000000000000000000000000000000000000000000000000000081526004018080602001828103825260188152602001807f796f7520616c726561647920686176652061204561727468000000000000000081525060200191505060405180910390fd5b610fd433600360016040518060400160405280600581526020017f307830303000000000000000000000000000000000000000000000000000000081525061368f565b600460009054906101000a900473ffffffffffffffffffffffffffffffffffffffff1673ffffffffffffffffffffffffffffffffffffffff166323b872dd33600760009054906101000a900473ffffffffffffffffffffffffffffffffffffffff166005546040518463ffffffff1660e01b8152600401808473ffffffffffffffffffffffffffffffffffffffff1681526020018373ffffffffffffffffffffffffffffffffffffffff1681526020018281526020019350505050602060405180830381600087803b1580156110a957600080fd5b505af11580156110bd573d6000803e3d6000fd5b505050506040513d60208110156110d357600080fd5b810190808051906020019092919050505050565b606060038054600181600116156101000203166002900480601f01602080910402602001604051908101604052809291908181526020018280546001816001161561010002031660029004801561117f5780601f106111545761010080835404028352916020019161117f565b820191906000526020600020905b81548152906001019060200180831161116257829003601f168201915b50505050509050919050565b600281565b600181565b601381565b60006111a7336000610dca565b1161121a576040517f08c379a00000000000000000000000000000000000000000000000000000000081526004018080602001828103825260158152602001807f796f75206e65656420686176652061205761746572000000000000000000000081525060200191505060405180910390fd5b6000611227336001610dca565b1161129a576040517f08c379a00000000000000000000000000000000000000000000000000000000081526004018080602001828103825260138152602001807f796f75206e65656420686176652061204169720000000000000000000000000081525060200191505060405180910390fd5b6112dd33600760016040518060400160405280600581526020017f307830303000000000000000000000000000000000000000000000000000000081525061368f565b600460009054906101000a900473ffffffffffffffffffffffffffffffffffffffff1673ffffffffffffffffffffffffffffffffffffffff166323b872dd33600760009054906101000a900473ffffffffffffffffffffffffffffffffffffffff166005546002026040518463ffffffff1660e01b8152600401808473ffffffffffffffffffffffffffffffffffffffff1681526020018373ffffffffffffffffffffffffffffffffffffffff1681526020018281526020019350505050602060405180830381600087803b1580156113b557600080fd5b505af11580156113c9573d6000803e3d6000fd5b505050506040513d60208110156113df57600080fd5b810190808051906020019092919050505050565b6000611400336000610dca565b14611473576040517f08c379a00000000000000000000000000000000000000000000000000000000081526004018080602001828103825260198152602001807f796f7520616c726561647920686176652061205761746572200000000000000081525060200191505060405180910390fd5b6114b633600060016040518060400160405280600581526020017f307830303000000000000000000000000000000000000000000000000000000081525061368f565b600460009054906101000a900473ffffffffffffffffffffffffffffffffffffffff1673ffffffffffffffffffffffffffffffffffffffff166323b872dd33600760009054906101000a900473ffffffffffffffffffffffffffffffffffffffff166005546040518463ffffffff1660e01b8152600401808473ffffffffffffffffffffffffffffffffffffffff1681526020018373ffffffffffffffffffffffffffffffffffffffff1681526020018281526020019350505050602060405180830381600087803b15801561158b57600080fd5b505af115801561159f573d6000803e3d6000fd5b505050506040513d60208110156115b557600080fd5b810190808051906020019092919050505050565b600d81565b60006115db336001610dca565b1161164e576040517f08c379a00000000000000000000000000000000000000000000000000000000081526004018080602001828103825260138152602001807f796f75206e65656420686176652061204169720000000000000000000000000081525060200191505060405180910390fd5b600061165b33600a610dca565b116116ce576040517f08c379a00000000000000000000000000000000000000000000000000000000081526004018080602001828103825260148152602001807f796f75206e6565642068617665206120526f636b00000000000000000000000081525060200191505060405180910390fd5b61171133600b60016040518060400160405280600581526020017f307830303000000000000000000000000000000000000000000000000000000081525061368f565b600460009054906101000a900473ffffffffffffffffffffffffffffffffffffffff1673ffffffffffffffffffffffffffffffffffffffff166323b872dd33600760009054906101000a900473ffffffffffffffffffffffffffffffffffffffff166005546002026040518463ffffffff1660e01b8152600401808473ffffffffffffffffffffffffffffffffffffffff1681526020018373ffffffffffffffffffffffffffffffffffffffff1681526020018281526020019350505050602060405180830381600087803b1580156117e957600080fd5b505af11580156117fd573d6000803e3d6000fd5b505050506040513d602081101561181357600080fd5b810190808051906020019092919050505050565b8151835114611881576040517f08c379a00000000000000000000000000000000000000000000000000000000081526004018080602001828103825260288152602001806143cb6028913960400191505060405180910390fd5b600073ffffffffffffffffffffffffffffffffffffffff168473ffffffffffffffffffffffffffffffffffffffff161415611907576040517f08c379a00000000000000000000000000000000000000000000000000000000081526004018080602001828103825260258152602001806142f86025913960400191505060405180910390fd5b61190f613892565b73ffffffffffffffffffffffffffffffffffffffff168573ffffffffffffffffffffffffffffffffffffffff16148061195557506119548561194f613892565b613181565b5b6119aa576040517f08c379a000000000000000000000000000000000000000000000000000000000815260040180806020018281038252603281526020018061431d6032913960400191505060405180910390fd5b60006119b4613892565b90506119c481878787878761389a565b60005b8451811015611b955760008582815181106119de57fe5b6020026020010151905060008583815181106119f657fe5b60200260200101519050611a7d816040518060600160405280602a815260200161434f602a91396001600086815260200190815260200160002060008d73ffffffffffffffffffffffffffffffffffffffff1673ffffffffffffffffffffffffffffffffffffffff168152602001908152602001600020546138a29092919063ffffffff16565b6001600084815260200190815260200160002060008b73ffffffffffffffffffffffffffffffffffffffff1673ffffffffffffffffffffffffffffffffffffffff16815260200190815260200160002081905550611b34816001600085815260200190815260200160002060008b73ffffffffffffffffffffffffffffffffffffffff1673ffffffffffffffffffffffffffffffffffffffff1681526020019081526020016000205461396290919063ffffffff16565b6001600084815260200190815260200160002060008a73ffffffffffffffffffffffffffffffffffffffff1673ffffffffffffffffffffffffffffffffffffffff1681526020019081526020016000208190555050508060010190506119c7565b508473ffffffffffffffffffffffffffffffffffffffff168673ffffffffffffffffffffffffffffffffffffffff168273ffffffffffffffffffffffffffffffffffffffff167f4a39dc06d4c0dbc64b70af90fd698a233a518aa5d07e595d983b8c0526c8f7fb8787604051808060200180602001838103835285818151815260200191508051906020019060200280838360005b83811015611c45578082015181840152602081019050611c2a565b50505050905001838103825284818151815260200191508051906020019060200280838360005b83811015611c87578082015181840152602081019050611c6c565b5050505090500194505050505060405180910390a4611caa8187878787876139ea565b505050505050565b601681565b6000611cc4336002610dca565b14611d37576040517f08c379a00000000000000000000000000000000000000000000000000000000081526004018080602001828103825260178152602001807f796f7520616c726561647920686176652061204669726500000000000000000081525060200191505060405180910390fd5b611d7a33600260016040518060400160405280600581526020017f307830303000000000000000000000000000000000000000000000000000000081525061368f565b600460009054906101000a900473ffffffffffffffffffffffffffffffffffffffff1673ffffffffffffffffffffffffffffffffffffffff166323b872dd33600760009054906101000a900473ffffffffffffffffffffffffffffffffffffffff166005546040518463ffffffff1660e01b8152600401808473ffffffffffffffffffffffffffffffffffffffff1681526020018373ffffffffffffffffffffffffffffffffffffffff1681526020018281526020019350505050602060405180830381600087803b158015611e4f57600080fd5b505af1158015611e63573d6000803e3d6000fd5b505050506040513d6020811015611e7957600080fd5b810190808051906020019092919050505050565b601481565b60608151835114611eee576040517f08c379a00000000000000000000000000000000000000000000000000000000081526004018080602001828103825260298152602001806143a26029913960400191505060405180910390fd5b6000835167ffffffffffffffff81118015611f0857600080fd5b50604051908082528060200260200182016040528015611f375781602001602082028036833780820191505090505b50905060005b845181101561207957600073ffffffffffffffffffffffffffffffffffffffff16858281518110611f6a57fe5b602002602001015173ffffffffffffffffffffffffffffffffffffffff161415611fdf576040517f08c379a000000000000000000000000000000000000000000000000000000000815260040180806020018281038252603181526020018061429e6031913960400191505060405180910390fd5b60016000858381518110611fef57fe5b60200260200101518152602001908152602001600020600086838151811061201357fe5b602002602001015173ffffffffffffffffffffffffffffffffffffffff1673ffffffffffffffffffffffffffffffffffffffff1681526020019081526020016000205482828151811061206257fe5b602002602001018181525050806001019050611f3d565b508091505092915050565b6000612091336001610dca565b14612104576040517f08c379a00000000000000000000000000000000000000000000000000000000081526004018080602001828103825260168152602001807f796f7520616c726561647920686176652061204169720000000000000000000081525060200191505060405180910390fd5b612146336001806040518060400160405280600581526020017f307830303000000000000000000000000000000000000000000000000000000081525061368f565b600460009054906101000a900473ffffffffffffffffffffffffffffffffffffffff1673ffffffffffffffffffffffffffffffffffffffff166323b872dd33600760009054906101000a900473ffffffffffffffffffffffffffffffffffffffff166005546040518463ffffffff1660e01b8152600401808473ffffffffffffffffffffffffffffffffffffffff1681526020018373ffffffffffffffffffffffffffffffffffffffff1681526020018281526020019350505050602060405180830381600087803b15801561221b57600080fd5b505af115801561222f573d6000803e3d6000fd5b505050506040513d602081101561224557600080fd5b810190808051906020019092919050505050565b601281565b600e81565b600481565b601081565b600061227a336002610dca565b116122ed576040517f08c379a00000000000000000000000000000000000000000000000000000000081526004018080602001828103825260148152602001807f796f75206e65656420686176652061204669726500000000000000000000000081525060200191505060405180910390fd5b60006122fa336001610dca565b1161236d576040517f08c379a00000000000000000000000000000000000000000000000000000000081526004018080602001828103825260138152602001807f796f75206e65656420686176652061204169720000000000000000000000000081525060200191505060405180910390fd5b6123b033600560016040518060400160405280600581526020017f307830303000000000000000000000000000000000000000000000000000000081525061368f565b600460009054906101000a900473ffffffffffffffffffffffffffffffffffffffff1673ffffffffffffffffffffffffffffffffffffffff166323b872dd33600760009054906101000a900473ffffffffffffffffffffffffffffffffffffffff166005546002026040518463ffffffff1660e01b8152600401808473ffffffffffffffffffffffffffffffffffffffff1681526020018373ffffffffffffffffffffffffffffffffffffffff1681526020018281526020019350505050602060405180830381600087803b15801561248857600080fd5b505af115801561249c573d6000803e3d6000fd5b505050506040513d60208110156124b257600080fd5b810190808051906020019092919050505050565b600581565b600a81565b600881565b600081565b60006124e7336000610dca565b1161255a576040517f08c379a00000000000000000000000000000000000000000000000000000000081526004018080602001828103825260158152602001807f796f75206e65656420686176652061205761746572000000000000000000000081525060200191505060405180910390fd5b6000612567336003610dca565b116125da576040517f08c379a00000000000000000000000000000000000000000000000000000000081526004018080602001828103825260158152602001807f796f75206e65656420686176652061204561727468000000000000000000000081525060200191505060405180910390fd5b61261d33600860016040518060400160405280600581526020017f307830303000000000000000000000000000000000000000000000000000000081525061368f565b600460009054906101000a900473ffffffffffffffffffffffffffffffffffffffff1673ffffffffffffffffffffffffffffffffffffffff166323b872dd33600760009054906101000a900473ffffffffffffffffffffffffffffffffffffffff166005546002026040518463ffffffff1660e01b8152600401808473ffffffffffffffffffffffffffffffffffffffff1681526020018373ffffffffffffffffffffffffffffffffffffffff1681526020018281526020019350505050602060405180830381600087803b1580156126f557600080fd5b505af1158015612709573d6000803e3d6000fd5b505050506040513d602081101561271f57600080fd5b810190808051906020019092919050505050565b600681565b600781565b600660009054906101000a900473ffffffffffffffffffffffffffffffffffffffff1673ffffffffffffffffffffffffffffffffffffffff163373ffffffffffffffffffffffffffffffffffffffff161461279757600080fd5b8060058190555050565b600981565b600660009054906101000a900473ffffffffffffffffffffffffffffffffffffffff1673ffffffffffffffffffffffffffffffffffffffff163373ffffffffffffffffffffffffffffffffffffffff161461280057600080fd5b80600760006101000a81548173ffffffffffffffffffffffffffffffffffffffff021916908373ffffffffffffffffffffffffffffffffffffffff16021790555050565b6000612851336001610dca565b116128c4576040517f08c379a00000000000000000000000000000000000000000000000000000000081526004018080602001828103825260138152602001807f796f75206e65656420686176652061204169720000000000000000000000000081525060200191505060405180910390fd5b60006128d1336006610dca565b11612944576040517f08c379a00000000000000000000000000000000000000000000000000000000081526004018080602001828103825260148152602001807f796f75206e65656420686176652061204c61766100000000000000000000000081525060200191505060405180910390fd5b61298733600a60016040518060400160405280600581526020017f307830303000000000000000000000000000000000000000000000000000000081525061368f565b600460009054906101000a900473ffffffffffffffffffffffffffffffffffffffff1673ffffffffffffffffffffffffffffffffffffffff166323b872dd33600760009054906101000a900473ffffffffffffffffffffffffffffffffffffffff166005546002026040518463ffffffff1660e01b8152600401808473ffffffffffffffffffffffffffffffffffffffff1681526020018373ffffffffffffffffffffffffffffffffffffffff1681526020018281526020019350505050602060405180830381600087803b158015612a5f57600080fd5b505af1158015612a73573d6000803e3d6000fd5b505050506040513d6020811015612a8957600080fd5b810190808051906020019092919050505050565b8173ffffffffffffffffffffffffffffffffffffffff16612abc613892565b73ffffffffffffffffffffffffffffffffffffffff161415612b29576040517f08c379a00000000000000000000000000000000000000000000000000000000081526004018080602001828103825260298152602001806143796029913960400191505060405180910390fd5b8060026000612b36613892565b73ffffffffffffffffffffffffffffffffffffffff1673ffffffffffffffffffffffffffffffffffffffff16815260200190815260200160002060008473ffffffffffffffffffffffffffffffffffffffff1673ffffffffffffffffffffffffffffffffffffffff16815260200190815260200160002060006101000a81548160ff0219169083151502179055508173ffffffffffffffffffffffffffffffffffffffff16612be3613892565b73ffffffffffffffffffffffffffffffffffffffff167f17307eab39ab6107e8899845ad3d59bd9653f200f220920489ca2b5937696c318360405180821515815260200191505060405180910390a35050565b601781565b600f81565b6000612c4d336000610dca565b11612cc0576040517f08c379a00000000000000000000000000000000000000000000000000000000081526004018080602001828103825260158152602001807f796f75206e65656420686176652061205761746572000000000000000000000081525060200191505060405180910390fd5b6000612ccd336002610dca565b11612d40576040517f08c379a00000000000000000000000000000000000000000000000000000000081526004018080602001828103825260148152602001807f796f75206e65656420686176652061204669726500000000000000000000000081525060200191505060405180910390fd5b6000612d4d336004610dca565b14612dc0576040517f08c379a00000000000000000000000000000000000000000000000000000000081526004018080602001828103825260188152602001807f796f7520616c72656164792068617665206120537465616d000000000000000081525060200191505060405180910390fd5b612e0333600460016040518060400160405280600581526020017f307830303000000000000000000000000000000000000000000000000000000081525061368f565b600460009054906101000a900473ffffffffffffffffffffffffffffffffffffffff1673ffffffffffffffffffffffffffffffffffffffff166323b872dd33600760009054906101000a900473ffffffffffffffffffffffffffffffffffffffff166005546002026040518463ffffffff1660e01b8152600401808473ffffffffffffffffffffffffffffffffffffffff1681526020018373ffffffffffffffffffffffffffffffffffffffff1681526020018281526020019350505050602060405180830381600087803b158015612edb57600080fd5b505af1158015612eef573d6000803e3d6000fd5b505050506040513d6020811015612f0557600080fd5b810190808051906020019092919050505050565b6000612f26336007610dca565b11612f99576040517f08c379a00000000000000000000000000000000000000000000000000000000081526004018080602001828103825260148152602001807f796f75206e65656420686176652061205261696e00000000000000000000000081525060200191505060405180910390fd5b6000612fa6336003610dca565b11613019576040517f08c379a00000000000000000000000000000000000000000000000000000000081526004018080602001828103825260158152602001807f796f75206e65656420686176652061204561727468000000000000000000000081525060200191505060405180910390fd5b61305c33600960016040518060400160405280600581526020017f307830303000000000000000000000000000000000000000000000000000000081525061368f565b600460009054906101000a900473ffffffffffffffffffffffffffffffffffffffff1673ffffffffffffffffffffffffffffffffffffffff166323b872dd33600760009054906101000a900473ffffffffffffffffffffffffffffffffffffffff166005546002026040518463ffffffff1660e01b8152600401808473ffffffffffffffffffffffffffffffffffffffff1681526020018373ffffffffffffffffffffffffffffffffffffffff1681526020018281526020019350505050602060405180830381600087803b15801561313457600080fd5b505af1158015613148573d6000803e3d6000fd5b505050506040513d602081101561315e57600080fd5b810190808051906020019092919050505050565b600b81565b601181565b600381565b6000600260008473ffffffffffffffffffffffffffffffffffffffff1673ffffffffffffffffffffffffffffffffffffffff16815260200190815260200160002060008373ffffffffffffffffffffffffffffffffffffffff1673ffffffffffffffffffffffffffffffffffffffff16815260200190815260200160002060009054906101000a900460ff16905092915050565b600c81565b600073ffffffffffffffffffffffffffffffffffffffff168473ffffffffffffffffffffffffffffffffffffffff1614156132a0576040517f08c379a00000000000000000000000000000000000000000000000000000000081526004018080602001828103825260258152602001806142f86025913960400191505060405180910390fd5b6132a8613892565b73ffffffffffffffffffffffffffffffffffffffff168573ffffffffffffffffffffffffffffffffffffffff1614806132ee57506132ed856132e8613892565b613181565b5b613343576040517f08c379a00000000000000000000000000000000000000000000000000000000081526004018080602001828103825260298152602001806142cf6029913960400191505060405180910390fd5b600061334d613892565b905061336d81878761335e88613d79565b61336788613d79565b8761389a565b6133ea836040518060600160405280602a815260200161434f602a91396001600088815260200190815260200160002060008a73ffffffffffffffffffffffffffffffffffffffff1673ffffffffffffffffffffffffffffffffffffffff168152602001908152602001600020546138a29092919063ffffffff16565b6001600086815260200190815260200160002060008873ffffffffffffffffffffffffffffffffffffffff1673ffffffffffffffffffffffffffffffffffffffff168152602001908152602001600020819055506134a1836001600087815260200190815260200160002060008873ffffffffffffffffffffffffffffffffffffffff1673ffffffffffffffffffffffffffffffffffffffff1681526020019081526020016000205461396290919063ffffffff16565b6001600086815260200190815260200160002060008773ffffffffffffffffffffffffffffffffffffffff1673ffffffffffffffffffffffffffffffffffffffff168152602001908152602001600020819055508473ffffffffffffffffffffffffffffffffffffffff168673ffffffffffffffffffffffffffffffffffffffff168273ffffffffffffffffffffffffffffffffffffffff167fc3d58168c5ae7397731d063d5bbf3d657854427343f4c083240f7aacaa2d0f628787604051808381526020018281526020019250505060405180910390a4613587818787878787613dea565b505050505050565b600660009054906101000a900473ffffffffffffffffffffffffffffffffffffffff1673ffffffffffffffffffffffffffffffffffffffff163373ffffffffffffffffffffffffffffffffffffffff16146135e957600080fd5b600073ffffffffffffffffffffffffffffffffffffffff168173ffffffffffffffffffffffffffffffffffffffff16141561362057fe5b80600660006101000a81548173ffffffffffffffffffffffffffffffffffffffff021916908373ffffffffffffffffffffffffffffffffffffffff16021790555050565b601581565b600460009054906101000a900473ffffffffffffffffffffffffffffffffffffffff1681565b600073ffffffffffffffffffffffffffffffffffffffff168473ffffffffffffffffffffffffffffffffffffffff161415613715576040517f08c379a00000000000000000000000000000000000000000000000000000000081526004018080602001828103825260218152602001806143f36021913960400191505060405180910390fd5b600061371f613892565b90506137408160008761373188613d79565b61373a88613d79565b8761389a565b6137a3836001600087815260200190815260200160002060008873ffffffffffffffffffffffffffffffffffffffff1673ffffffffffffffffffffffffffffffffffffffff1681526020019081526020016000205461396290919063ffffffff16565b6001600086815260200190815260200160002060008773ffffffffffffffffffffffffffffffffffffffff1673ffffffffffffffffffffffffffffffffffffffff168152602001908152602001600020819055508473ffffffffffffffffffffffffffffffffffffffff16600073ffffffffffffffffffffffffffffffffffffffff168273ffffffffffffffffffffffffffffffffffffffff167fc3d58168c5ae7397731d063d5bbf3d657854427343f4c083240f7aacaa2d0f628787604051808381526020018281526020019250505060405180910390a461388b81600087878787613dea565b5050505050565b600033905090565b505050505050565b600083831115829061394f576040517f08c379a00000000000000000000000000000000000000000000000000000000081526004018080602001828103825283818151815260200191508051906020019080838360005b838110156139145780820151818401526020810190506138f9565b50505050905090810190601f1680156139415780820380516001836020036101000a031916815260200191505b509250505060405180910390fd5b5060008385039050809150509392505050565b6000808284019050838110156139e0576040517f08c379a000000000000000000000000000000000000000000000000000000000815260040180806020018281038252601b8152602001807f536166654d6174683a206164646974696f6e206f766572666c6f77000000000081525060200191505060405180910390fd5b8091505092915050565b613a098473ffffffffffffffffffffffffffffffffffffffff166140f7565b15613d71578373ffffffffffffffffffffffffffffffffffffffff1663bc197c8187878686866040518663ffffffff1660e01b8152600401808673ffffffffffffffffffffffffffffffffffffffff1681526020018573ffffffffffffffffffffffffffffffffffffffff168152602001806020018060200180602001848103845287818151815260200191508051906020019060200280838360005b83811015613ac1578082015181840152602081019050613aa6565b50505050905001848103835286818151815260200191508051906020019060200280838360005b83811015613b03578082015181840152602081019050613ae8565b50505050905001848103825285818151815260200191508051906020019080838360005b83811015613b42578082015181840152602081019050613b27565b50505050905090810190601f168015613b6f5780820380516001836020036101000a031916815260200191505b5098505050505050505050602060405180830381600087803b158015613b9457600080fd5b505af1925050508015613bc857506040513d6020811015613bb457600080fd5b810190808051906020019092919050505060015b613cd257613bd4614160565b80613bdf5750613c81565b806040517f08c379a00000000000000000000000000000000000000000000000000000000081526004018080602001828103825283818151815260200191508051906020019080838360005b83811015613c46578082015181840152602081019050613c2b565b50505050905090810190601f168015613c735780820380516001836020036101000a031916815260200191505b509250505060405180910390fd5b6040517f08c379a00000000000000000000000000000000000000000000000000000000081526004018080602001828103825260348152602001806142176034913960400191505060405180910390fd5b63bc197c8160e01b7bffffffffffffffffffffffffffffffffffffffffffffffffffffffff1916817bffffffffffffffffffffffffffffffffffffffffffffffffffffffff191614613d6f576040517f08c379a000000000000000000000000000000000000000000000000000000000815260040180806020018281038252602881526020018061424b6028913960400191505060405180910390fd5b505b505050505050565b60606000600167ffffffffffffffff81118015613d9557600080fd5b50604051908082528060200260200182016040528015613dc45781602001602082028036833780820191505090505b5090508281600081518110613dd557fe5b60200260200101818152505080915050919050565b613e098473ffffffffffffffffffffffffffffffffffffffff166140f7565b156140ef578373ffffffffffffffffffffffffffffffffffffffff1663f23a6e6187878686866040518663ffffffff1660e01b8152600401808673ffffffffffffffffffffffffffffffffffffffff1681526020018573ffffffffffffffffffffffffffffffffffffffff16815260200184815260200183815260200180602001828103825283818151815260200191508051906020019080838360005b83811015613ec2578082015181840152602081019050613ea7565b50505050905090810190601f168015613eef5780820380516001836020036101000a031916815260200191505b509650505050505050602060405180830381600087803b158015613f1257600080fd5b505af1925050508015613f4657506040513d6020811015613f3257600080fd5b810190808051906020019092919050505060015b61405057613f52614160565b80613f5d5750613fff565b806040517f08c379a00000000000000000000000000000000000000000000000000000000081526004018080602001828103825283818151815260200191508051906020019080838360005b83811015613fc4578082015181840152602081019050613fa9565b50505050905090810190601f168015613ff15780820380516001836020036101000a031916815260200191505b509250505060405180910390fd5b6040517f08c379a00000000000000000000000000000000000000000000000000000000081526004018080602001828103825260348152602001806142176034913960400191505060405180910390fd5b63f23a6e6160e01b7bffffffffffffffffffffffffffffffffffffffffffffffffffffffff1916817bffffffffffffffffffffffffffffffffffffffffffffffffffffffff1916146140ed576040517f08c379a000000000000000000000000000000000000000000000000000000000815260040180806020018281038252602881526020018061424b6028913960400191505060405180910390fd5b505b505050505050565b60008060007fc5d2460186f7233c927e7db2dcc703c0e500b653ca82273b7bfad8045d85a47060001b9050833f915080821415801561413957506000801b8214155b92505050919050565b6000601f19601f8301169050919050565b60008160e01c9050919050565b600060443d101561417057614213565b60046000803e614181600051614153565b6308c379a081146141925750614213565b60405160043d036004823e80513d602482011167ffffffffffffffff821117156141be57505050614213565b808201805167ffffffffffffffff8111156141dd575050505050614213565b8060208301013d85018111156141f857505050505050614213565b61420182614142565b60208401016040528296505050505050505b9056fe455243313135353a207472616e7366657220746f206e6f6e2045524331313535526563656976657220696d706c656d656e746572455243313135353a204552433131353552656365697665722072656a656374656420746f6b656e73455243313135353a2062616c616e636520717565727920666f7220746865207a65726f2061646472657373455243313135353a2062617463682062616c616e636520717565727920666f7220746865207a65726f2061646472657373455243313135353a2063616c6c6572206973206e6f74206f776e6572206e6f7220617070726f766564455243313135353a207472616e7366657220746f20746865207a65726f2061646472657373455243313135353a207472616e736665722063616c6c6572206973206e6f74206f776e6572206e6f7220617070726f766564455243313135353a20696e73756666696369656e742062616c616e636520666f72207472616e73666572455243313135353a2073657474696e6720617070726f76616c2073746174757320666f722073656c66455243313135353a206163636f756e747320616e6420696473206c656e677468206d69736d61746368455243313135353a2069647320616e6420616d6f756e7473206c656e677468206d69736d61746368455243313135353a206d696e7420746f20746865207a65726f2061646472657373a2646970667358221220da0be66819d3a71a588a655ada826bc6a87e0e6a631166b7926790ec0fba242564736f6c6343000706003368747470733a2f2f676174657761792e70696e6174612e636c6f75642f697066732f516d544e333271424b59716e7976617471666e5538726136635955474e7870597a69536464436174456d6f704c522f6d657461646174612f6170692f6974656d2f7b69647d2e6a736f6e",
  "linkReferences": {},
  "deployedLinkReferences": {}
}